:060000000A128A110C280F
:10000800FE00030EF0000A08F1000A128A11F82E09
:100018000A128A110F2883134030FD000630FE00B3
:100028001030FF00203084000A128A1179260A1243
:100038008A11403084005C300A128A11F0260A12B4
:100048008A11FA01FB0183010A128A112B280A126C
:100058008A1188260A128A117030831603138F00BA
:10006800003083120313E5000030E4002530E3007C
:100078008030E2000A128A11D1220A128A11153040
:1000880083120313EE004B30ED00BD30EC00EC0B97
:100098004B28ED0B4B28EE0B4B28522800300A1248
:1000A8008A111C250A128A11FA0000300A128A11D4
:1000B8001C250A128A11FB000A128A11DE260A126E
:1000C8008A11D030F2000030F3000A128A11CB26D0
:1000D8000A128A110130F2000030F3000A128A1164
:1000E800CB260A128A117A0883120313EC00ED0159
:1000F8006C08F2006D08F3000A128A11CB260A1266
:100108008A110A128A11D5260A128A11033083121B
:100118000313EE000830ED007630EC00EC0B92286B
:10012800ED0B9228EE0B922800000A128A11DE26A7
:100138000A128A11D030F2000030F3000A128A1134
:10014800CB260A128A110030F200F3000A128A1133
:10015800CB260A128A117B0883120313EC00ED01E7
:100168006C08F2006D08F3000A128A11CB260A12F5
:100178008A110A128A11D5260A128A110A128A11BC
:10018800DE260A128A11D030F2000030F3000A127B
:100198008A11CB260A128A110030F200F3000A12E3
:1001A8008A11CB260A128A110A128A11D5260A1236
:1001B8008A110A128A11DE260A128A11D030F20038
:1001C8000030F3000A128A11CB260A128A11003075
:1001D800F200F3000A128A11CB260A128A110A12B7
:1001E8008A11E7260A128A11D130F2000030F30092
:1001F8000A128A11CB260A128A110030F200F30083
:100208000A128A114E250A128A117208FB0001305F
:10021800F2000030F3000A128A11CB260A128A1162
:100228000A128A11E7260A128A11D130F200003028
:10023800F3000A128A11CB260A128A110030F20042
:10024800F3000A128A114E250A128A117208FA005E
:100258000A128A11D5260A128A110330831203134F
:10026800EE000830ED007630EC00EC0B3929ED0B90
:100278003929EE0B39290000303083120313C800E6
:100288003030C9003030CA000A128A1192210A128D
:100298008A111030F3008030F4000A128A117C258C
:1002A8000A128A114830F3000030F4000A128A1149
:1002B8007C250A128A111030F3008030F4000A12EB
:1002C8008A117C250A128A11083083120313EE0062
:1002D8001B30ED002630EC00EC0B7029ED0B70297B
:1002E800EE0B702900000A128A11C1260A128A111F
:1002F800031C7F298029C2280A128A119A260A1209
:100308008A1183120313EF006F080A128A11B526A7
:100318000A128A11C2280A128A110C287B080A12AA
:100328008A114A260A128A11FB007A080A128A11CF
:100338004A260A128A11FA008312031343080A1282
:100348008A114A260A128A1183120313C30042082B
:100358000A128A114A260A128A1183120313C2004A
:1003680041080A128A114A260A128A1183120313B3
:10037800C10040080A128A114A260A128A118312F9
:100388000313C0000A30F2000030F3004308E00015
:10039800E1016008F4006108F5000A128A1171236E
:1003A8000A128A117208303E83120313B7000A300A
:1003B800F2000030F3004308E000E1016008F400B7
:1003C8006108F5000A128A1142240A128A11720879
:1003D800303E83120313B8000A30F2000030F300F5
:1003E8007A08E000E1016008F4006108F5000A12EB
:1003F8008A1171230A128A117208303E831203137C
:10040800BA000A30F2000030F3007A08E000E10197
:100418006008F4006108F5000A128A1142240A12E1
:100428008A117208303E83120313BB000A30F200AF
:100438000030F3007B08E000E1016008F400610887
:10044800F5000A128A1171230A128A117208303EC5
:1004580083120313BD000A30F2000030F3007B085A
:10046800E000E1016008F4006108F5000A128A1151
:1004780042240A128A117208303E83120313BE0006
:100488000A30F2000030F3004208E000E1016008A1
:10049800F4006108F5000A128A1171230A128A1100
:1004A8007208303E83120313A6000A30F2000030AF
:1004B800F3004208E000E1016008F4006108F5007B
:1004C8000A128A1142240A128A117208303E8312D3
:1004D8000313A7000A30F2000030F3004108E000DF
:1004E800E1016008F4006108F5000A128A1171231D
:1004F8000A128A117208303E83120313A9000A30C7
:10050800F2000030F3004108E000E1016008F40067
:100518006108F5000A128A1142240A128A11720827
:10052800303E83120313AA000A30F2000030F300B1
:100538004008E000E1016008F4006108F5000A12D3
:100548008A1171230A128A117208303E831203132A
:10055800AE000A30F2000030F3004008E000E1018C
:100568006008F4006108F5000A128A1142240A1290
:100578008A117208303E83120313AF00F601F60A9F
:1005880001300A128A119B240A128A1131300A1288
:100598008A11A7250A128A11080083120313620818
:1005A800E6006308E7006408E8006508E90004302D
:1005B8000310E60DE70DE80DE90DFF3E031DDC2AEB
:1005C8006908F5006808F4006708F3006608F20097
:1005D8000030F9007A30F8001230F7000030F600E9
:1005E8000A128A11DA230A128A117208FF3E83124C
:1005F8000313EA0073080318013EFF3EEB00EB1FEC
:10060800062B072B092BEA01EB016B08803AFF0048
:1006180081307F02031D122B00306A02031C152B48
:10062800162B642B831203136208E6006308E700A5
:100638006408E8006508E90006300310E60DE70DD8
:10064800E80DE90DFF3E031D212B6908F500680838
:10065800F4006708F3006608F2000030F9007A3009
:10066800F8001230F7000030F6000A128A11DA2377
:100678000A128A117208FF3E83120313EA007308F4
:100688000318013EFF3EEB006B08803AFF00813003
:100698007F02031D512B00306A02031C542B552B7B
:1006A8005B2BFF3083120313EA000030EB00831248
:1006B80003136A08831603139900203098006C2BE3
:1006C800831203136A0883160313990024309800D1
:1006D8009030831203139800080083120313DD017E
:1006E800F31F772B782B7F2BF209F309F20A0319F2
:1006F800F30ADD01DD0AF51F822B832B8C2BF4090D
:10070800F509F40A0319F50A0130F6007608DD0642
:10071800DE01DF01720873040319932B942BCB2B92
:10072800DC01DC0AA22B01300310F20DF30DFF3EB1
:10073800031D982B0130F6007608DC07F31FA52B64
:10074800A62B972B01300310DE0DDF0DFF3E031D96
:10075800A72B73087502031DB32B72087402031CC0
:10076800B62BB72BBE2B7208F4027308031CF503D3
:10077800F5025E1401300310F30CF20CFF3E031D6A
:10078800BF2B0130DC02031DCA2BCB2BA62B5D0827
:100798000319CF2BD02BD52BDE09DF09DE0A03196D
:1007A800DF0A5F08F3005E08F200080000308312D9
:1007B8000313E0000030DF000030DE000030DD0011
:1007C80075087404730472040319EB2BEC2B392C91
:1007D800E101E10AFC2B0130DC000310F20DF30DFE
:1007E800F40DF50DDC0BF12B0130DC005C08E107A2
:1007F800F51FFF2B002CEF2B0130DC000310DD0D63
:10080800DE0DDF0DE00DDC0B022C75087902031DEF
:10081800172C74087802031D172C73087702031D20
:10082800172C72087602031C1A2C1B2C2A2C72080F
:10083800F6027308031C730FF7027408031C740F85
:10084800F8027508031C750FF9025D1401300310D6
:10085800F50CF40CF30CF20CFF3E031D2B2C0130AD
:10086800E102031D382C392C002C6008F5005F08C4
:10087800F4005E08F3005D08F2000800F801F51FB7
:10088800462C472C4E2CF409F509F40A0319F50AED
:10089800F801F80AF31F512C522C572CF209F309CE
:1008A800F20A0319F30A7208730403195C2C5D2C0D
:1008B8008C2CF701F70A6B2C01300310F20DF30DA5
:1008C800FF3E031D612C0130F6007608F707F31F81
:1008D8006E2C6F2C602C73087502031D752C720822
:1008E8007402031C782C792C7F2C7208F40273088C
:1008F800031CF503F50201300310F30CF20CFF3E64
:10090800031D802C0130F702031D8B2C8C2C6F2CBF
:1009180078080319902C912C962CF409F509F40AFF
:100928000319F50A7508F3007408F2000800831229
:100938000313DC005C03031DA22CA32CC22C760835
:100948007F3EDF005F08F70004300310F70CFF3E1E
:10095800031DA92C7708DD005F080F39DE005D084C
:100968000A128A1130260A128A11831203135E08AA
:100978000A128A1130260A128A11E62C02305C0605
:10098800031DC72CC82CE62C7608BF3EDF005F0885
:10099800F70004300310F70CFF3E031DCE2C770838
:1009A800DD005F080F39DE005D080A128A11302663
:1009B8000A128A11831203135E080A128A1130265A
:1009C8000A128A110800F60076080F39F400760832
:1009D800F039F5008312031308157508F300043085
:1009E8000310F30CFF3E031DF42C73080A128A113E
:1009F800EE250A128A118312031388151A30F300A0
:100A0800F30B042D000083120313881174080A12D3
:100A18008A11EE250A128A118312031388151A30D7
:100A2800F300F30B152D000083120313881108003F
:100A3800F9000A30F2000030F3007908831203133A
:100A4800E000E1016008F4006108F5000A128A116B
:100A580071230A128A11720883120313E200043008
:100A68000310E20DFF3E031D342D0A30F200003062
:100A7800F3007908E300E4016308F4006408F50072
:100A88000A128A1142240A128A1172088312031365
:100A9800620708000A128A11A8260A128A11831608
:100AA800031391150A128A11A8260A128A118312B1
:100AB80003131308F400F5017408F6007508F7002D
:100AC8000A128A11A8260A128A1172037304031DD6
:100AD8006E2D6F2D732D831603139112762D8316A9
:100AE8000313911611167708F3007608F200080030
:100AF800F601932D76087307840074080318740AA6
:100B0800FF000A128A11CC250A128A110A128A11C8
:100B1800B5260A128A110130F5007508F60776081D
:100B28007307840074080318740A83120313FF0000
:100B38000A128A11CC250A128A11003A031DA52D22
:100B4800A62D7E2D080083120313DC00DD01DE01D3
:100B5800C02D5D085C07F7007708840000080A12BA
:100B68008A11E7240A128A11013083120313DD0760
:100B78000318DE0A0030DE075D085C07F700770817
:100B8800840083130008031DCA2DCB2DAD2D08004A
:100B9800FF1BD62D83137F1883170008840A0319B7
:100BA800FF0A080005308A000408840A8207003416
:100BB80032342E3445346E347634693461347234C8
:100BC80020344134733463346934693400340D3467
:100BD8000A340034F200721CF22DF32DF72D831223
:100BE80003130816FA2D831203130812F21CFD2DA5
:100BF800FE2D002E8816012E8812721D042E052E39
:100C0800072E0817082E0813F21D0B2E0C2E0E2E79
:100C180088170F2E8813080044344134543445345F
:100C28003A342034303430342F34303430342F34A4
:100C380032343034303430340034543449344D3460
:100C480045343A342034303430343A343034303463
:100C58003A34303430340034F50083120313081169
:100C680075080A128A11EE250A128A1183120313D3
:100C780088150B30F4006230F300F30B412EF40BAF
:100C8800412E00008312031388110800F8000F306A
:100C98007805F6000A30F2007808F70004300310EF
:100CA800F70CFF3E031D532E77080A128A1160269F
:100CB8000A128A1176070800F500F401751C652EE2
:100CC800662E6A2E7208F3007308F4070310F20DFB
:100CD8000310F50C7508031D722E732E622E74080E
:100CE80008007E088A007F0882000A128A11752689
:100CF8000A128A118000840A04087D060319003448
:100D0800FF0A0319FE0A792E831603178801890141
:100D18008316031388018312031388010B178B179B
:100D28007030831603138F040F1408008312031303
:100D38008C1E9F2EA02E9A2E981CA32EA42EA62E73
:100D4800181218161A080800831603131419AD2E62
:100D5800AE2EA82E11081F39031DB32EB42EA82EAF
:100D68000800F20083160313981CBB2EBC2EB62E67
:100D780072088312031399000800831203138C1A54
:100D8800C62EC72EC92E0310CA2E031408000A1235
:100D98008A11A8260A128A11720883120313930073
:100DA80008000A128A11A8260A128A118316031348
:100DB800111508000A128A11A8260A128A11831628
:100DC8000313111408000A128A11A8260A128A119C
:100DD800831603139114080064008001840A040632
:100DE800031900340406F12E000071088A00700E01
:080DF8008300FE0E7E0E0900CF
:08400000FF3FFF3FFF3FFF3FC0
:04400E00D538FF3F63
:00000001FF
