:100000000A128A11EB2FFF1B0D2883137F18831709
:100010000008840A0319FF0A080000308A00040857
:10002000840A8207003432342E3445346E347634F8
:100030006934613472342034413473346334693444
:1000400069340034013400340A3400346434003438
:10005000E834033410342734683465347934003498
:0600600025347534003464
:1004660064008001840A0406031900340406342A51
:100476000A128A1160220A128A1183160313911432
:1004860008000A128A1160220A128A1183160313BF
:10049600111408000A128A1160220A128A118316A0
:1004A6000313111508000A128A1160220A128A1112
:1004B600700883120313930008008316031314199C
:1004C600652A662A602A11081F39031D6B2A6C2AC1
:1004D600602A080000300A128A117A220A128A114A
:1004E60001300A128A117A220A128A110800F300D0
:1004F60083120313081173080A128A11AE220A1214
:100506008A118312031388150B30F2006230F10052
:10051600F10B8B2AF20B8B2A00008312031388112E
:1005260008008316031788018901831603138710B1
:1005360007110713871385018601880183120313A8
:100546008501860188018714071570308316031309
:100556008F040F140800F000701CB22AB32AB72AC1
:10056600831203130816BA2A831203130812F01C07
:10057600BD2ABE2AC02A8816C12A8812701DC42A1E
:10058600C52AC72A0817C82A0813F01DCB2ACC2A61
:10059600CE2A8817CF2A881308000A128A116022E9
:1005A6000A128A118316031391150A128A11602200
:1005B6000A128A11831203131308F200F301720858
:1005C600F4007308F5000A128A1160220A128A11D1
:1005D60070037104031DF02AF12AF52A831603130A
:1005E6009112F82A83160313911611167508F10055
:1005F6007408F0000800283083120313940053088F
:10060600D7005408D8005508D9005608DA00023039
:100616000310D70DD80DD90DDA0DFF3E031D0B2B98
:100626005A08F3005908F2005808F1005708F0007C
:100636000030F7007A30F6001230F5000030F40092
:100646000A128A11C7240A128A117008FF3E8316FD
:100656000313930094010800F40074080F39F200A4
:100666007408F039F3008312031308157308F100B8
:1006760004300310F10CFF3E031D3C2B71080A12D7
:100686008A11AE220A128A118312031388151A30B0
:10069600F100F10B4C2B0000831203138811720832
:1006A6000A128A11AE220A128A11831203138815BE
:1006B6001A30F100F10B5D2B000083120313881131
:1006C6000800780879040319692B6A2B992BFD0118
:1006D600FD0A782B01300310F80DF90DFF3E031DBE
:1006E6006E2B0130FC007C08FD07F91F7B2B7C2B51
:1006F6006D2B79087B02031D822B78087A02031C76
:10070600852B862B8C2B7808FA027908031CFB03B1
:10071600FB0201300310F90CF80CFF3E031D8D2B74
:100726000130FD02031D982B992B7C2B7B08F900C9
:100736007A08F8000800FA01FB01C32B7A0875074E
:10074600F8007608F7000318F70AFA1FAB2BF70331
:100756007708F900790883120313FF0078088400EC
:100766000A128A1103200A128A110A128A112F23E9
:100776000A128A110130FA070318FB0A0030FB0738
:100786007A087507F8007608F7000318F70AFA1FC3
:10079600CD2BF7037708F900790883120313FF00BE
:1007A600780884000A128A1103200A128A11003A74
:1007B600031DDE2BDF2BA12B0800F501F6017008C7
:1007C60071040319E72BE82B1F2CF701F70AF62B08
:1007D60001300310F00DF10DFF3E031DEC2B01302F
:1007E600F4007408F707F11FF92BFA2BEB2B0130F5
:1007F6000310F50DF60DFF3E031DFB2B710873026A
:10080600031D072C70087202031C0A2C0B2C122CD9
:100816007008F2027108031CF303F3027514013029
:100826000310F10CF00CFF3E031D132C0130F702F0
:10083600031D1E2C1F2CFA2B7608F1007508F000FC
:100846000800F6007603031D292C2A2C472C740871
:100856007F3EF9007908F50004300310F50CFF3EE1
:10086600031D302C7508F70079080F39F800770852
:100876000A128A117A220A128A1178080A128A1131
:100886007A220A128A11692C02307606031D4C2C34
:100896004D2C692C7408BF3EF9007908F500043028
:1008A6000310F50CFF3E031D532C7508F70079085D
:1008B6000F39F80077080A128A117A220A128A1169
:1008C60078080A128A117A220A128A110800003060
:1008D6000A128A11AE220A128A113430F500F1305A
:1008E600F400F40B742CF50B742C792C03300A12DB
:1008F6008A117A220A128A110D30F500FB30F400B3
:10090600F40B832CF50B832C882C03300A128A11E6
:100916007A220A128A111D30F5009130F400F40B88
:10092600922CF50B922C03300A128A117A220A12A3
:100936008A1102300A128A117A220A128A110230A8
:100946000A128A117A220A128A1108300A128A11A8
:100956007A220A128A1100300A128A117A220A129F
:100966008A110C300A128A117A220A128A11003070
:100976000A128A117A220A128A1106300A128A117A
:100986007A220A128A1108000030FC000030FB00AF
:100996000030FA000030F900730872047104700424
:1009A6000319D62CD72C242DFD01FD0AE72C013086
:1009B600F8000310F00DF10DF20DF30DF80BDC2C21
:1009C6000130F8007808FD07F31FEA2CEB2CDA2C2F
:1009D6000130F8000310F90DFA0DFB0DFC0DF80BB4
:1009E600ED2C73087702031D022D72087602031D93
:1009F600022D71087502031D022D70087402031C76
:100A0600052D062D152D7008F4027108031C710FB3
:100A1600F5027208031C720FF6027308031C730FAB
:100A2600F702791401300310F30CF20CF10CF00C00
:100A3600FF3E031D162D0130FD02031D232D242D1F
:100A4600EB2C7C08F3007B08F2007A08F1007908A9
:100A5600F0000800F601F11F312D322D392DF00975
:100A6600F109F00A0319F10AF601F60AF31F3C2D03
:100A76003D2D462DF209F309F20A0319F30A013056
:100A8600F4007408F606F701F801700871040319FA
:100A96004D2D4E2D852DF501F50A5C2D01300310E7
:100AA600F00DF10DFF3E031D522D0130F4007408C8
:100AB600F507F11F5F2D602D512D01300310F70D45
:100AC600F80DFF3E031D612D71087302031D6D2D88
:100AD60070087202031C702D712D782D7008F202B9
:100AE6007108031CF303F302771401300310F10CB1
:100AF600F00CFF3E031D792D0130F502031D842DF8
:100B0600852D602D76080319892D8A2D8F2DF709DD
:100B1600F809F70A0319F80A7808F1007708F000CF
:100B2600080083120313DE005430DA00402E25300D
:100B36005F0603199F2DA02DAA2D5E0884005F086D
:100B4600831380000130D6005608DE07402ED901F7
:100B5600B12DC030D6005608D904CB2D0130D307AD
:100B6600FF30530784000A128A110D200A128A11D7
:100B7600DF00D600D7015708003A0319C32D402ECF
:100B86005608003A0319502E753A0319AC2D402E1B
:100B96005A08840083130008DB00840A0008DC007E
:100BA6000230D6005608DA07DF01DF0A5F08D600F2
:100BB6005607103E84000A128A110D200A128A1165
:100BC600D7000A128A110D200A128A11D800580875
:100BD6005C02031DF02D57085B020318F32DF42D5C
:100BE600F52DFF2D0130D6005608DF0705305F06CC
:100BF600031DFE2DFF2DD92D5F08DD00372E0A308F
:100C0600F8000030F9005D08D6005607103E840053
:100C16000A128A110D200A128A11F0000A128A118C
:100C26000D200A128A11F1005C08F3005B08F2003D
:100C36000A128A11E0230A128A117108FB00700851
:100C4600FA000A128A1164230A128A117808303EC1
:100C560083120313DF005E0884005F08831380009D
:100C66000130D6005608DE07FF30D6005608DD07ED
:100C76005D0A031D3F2E402E022E0130D307FF30A2
:100C8600530784000A128A110D200A128A11DF0006
:100C96005F08031D4F2E502E9A2D5E088400831385
:100CA600800108000A128A1194220A128A110A1275
:100CB6008A116A240A128A11003083120313D6009D
:100CC6000130D5008630D400A030D3000A128A1134
:100CD600FE220A128A110A128A1144220A128A1163
:100CE6002D30F0000030F1000A128A1156220A1245
:100CF6008A110830F0000030F1000A128A115622DB
:100D06000A128A110A128A113B220A128A113130FA
:100D1600F0000030F1000A128A1156220A128A11D6
:100D26000230F0000030F1000A128A1156220A122F
:100D36008A110A128A114D220A128A110A128A117E
:100D460044220A128A113230F0000030F1000A12F1
:100D56008A1156220A128A110030F000F1000A1296
:100D66008A11D0220A128A11700883120313A50071
:100D76000A128A113B220A128A113330F00000301F
:100D8600F1000A128A1156220A128A110030F00066
:100D9600F1000A128A11D0220A128A1170088312EF
:100DA6000313A4000A128A113B220A128A11343054
:100DB600F0000030F1000A128A1156220A128A1136
:100DC6000030F000F1000A128A11D0220A128A11AC
:100DD600700883120313A3000A128A113B220A1217
:100DE6008A113530F0000030F1000A128A115622BD
:100DF6000A128A110030F000F1000A128A11D0227C
:100E06000A128A11700883120313A2000A128A11A9
:100E16003B220A128A113630F0000030F1000A1225
:100E26008A1156220A128A110030F000F1000A12C5
:100E36008A11D0220A128A11700883120313A100A4
:100E46000A128A113B220A128A113730F00000304A
:100E5600F1000A128A1156220A128A110030F00095
:100E6600F1000A128A11D0220A128A11700883121E
:100E76000313A0000A128A114D220A128A110330A6
:100E860083120313E2000830E1007630E000E00B45
:100E96004A2FE10B4A2FE20B4A2F00000A128A1151
:100EA6006D220A128A11831203132508A90023084A
:100EB600A8002108A7000030F0000130F100290841
:100EC600E000E1016008F2006108F3000A128A11ED
:100ED6002D250A128A11700883120313A6001E30EC
:100EE600D3002608E000E1016008D4006108D500BF
:100EF6003F300A128A1194250A128A111E30831273
:100F06000313D3002808E000E1016008D40061085B
:100F1600D5002B300A128A1194250A128A111E3026
:100F260083120313D3002708E000E1016008D40010
:100F36006108D500A0300A128A1194250A128A1176
:100F4600F401F40A01300A128A1124240A128A11C1
:100F56003F30F5000030F6000A128A119E230A126D
:100F66008A110530F40001300A128A1124240A126B
:100F76008A112B30F5000030F6000A128A119E23E2
:100F86000A128A110C30F40001300A128A11242444
:100F96000A128A11A030F5000030F6000A128A11F2
:100FA6009E230A128A11F401F40A02300A128A11E7
:100FB60024240A128A111A30F5008030F6000A122B
:100FC6008A119E230A128A11A12E0A128A1100285A
:100FD60083132030840053300A128A1133220A12F6
:100FE6008A11A0308400B4300A128A1133220A1200
:0A0FF6008A1183010A128A11552E98
:08400000FF3FFF3FFF3FFF3FC0
:04400E00D520FF3F7B
:00000001FF
