:100000000A128A11EB2F00308A000408840A820742
:10001000003432342E3445346E34763469346134ED
:1000200072342034413473346334693469340034B5
:10003000013400340A34003464340034E8340334C6
:0A00400010342734253475340034E1
:1005D20064008001840A0406031900340406EA2A2E
:1005E2000A128A1116230A128A118316031391140E
:1005F20008000A128A1116230A128A11831603139B
:10060200111408000A128A1116230A128A1183167B
:100612000313111508000A128A1116230A128A11ED
:10062200700883120313930008008316031314192E
:100632001B2B1C2B162B11081F39031D212B222BC0
:10064200162B080000300A128A1130230A128A116E
:1006520001300A128A1130230A128A110800F300AB
:1006620083120313081173080A128A1185230A12CE
:100672008A118312031388150B30F2006230F100E5
:10068200F10B412BF20B412B000083120313881153
:100692000800831603178801890183160313871044
:1006A200071107138713850186018801831203133B
:1006B200850186018801871407157030831603139C
:1006C2008F040F140800F800F601F701792B760861
:1006D2007807F5007508840000080A128A110624BA
:1006E2000A128A110130F6070318F70A0030F707D9
:1006F20076087807F5007508840083130008031D47
:10070200832B842B682B0800F000701C892B8A2B0A
:100712008E2B831203130816912B831203130812D4
:10072200F01C942B952B972B8816982B8812701DF2
:100732009B2B9C2B9E2B08179F2B0813F01DA22B83
:10074200A32BA52B8817A62B881308000A128A113F
:1007520016230A128A118316031391150A128A119B
:1007620016230A128A11831203131308F200F301EB
:100772007208F4007308F5000A128A1116230A128D
:100782008A1170037104031DC72BC82BCC2B83164F
:1007920003139112CF2B83160313911611167508AA
:1007A200F1007408F000080028308312031394004B
:1007B2005208D6005308D7005408D8005508D9006B
:1007C20002300310D60DD70DD80DD90DFF3E031DF3
:1007D200E22B5908F3005808F2005708F1005608B6
:1007E200F0000030F7007A30F6001230F5000030E9
:1007F200F4000A128A115C250A128A117008FF3E5F
:1008020083160313930094010800F40074080F394F
:10081200F2007408F039F300831203130815730809
:10082200F10004300310F10CFF3E031D132C71087C
:100832000A128A1185230A128A1183120313881558
:100842001A30F100F10B232C0000831203138811DC
:1008520072080A128A1185230A128A11831203135B
:1008620088151A30F100F10B342C000083120313A7
:1008720088110800780879040319402C412C702C47
:10088200FD01FD0A4F2C01300310F80DF90DFF3E5A
:10089200031D452C0130FC007C08FD07F91F522C7A
:1008A200532C442C79087B02031D592C78087A02B8
:1008B200031C5C2C5D2C632C7808FA027908031C5B
:1008C200FB03FB0201300310F90CF80CFF3E031D81
:1008D200642C0130FD02031D6F2C702C532C7B08FD
:1008E200F9007A08F8000800F501F60170087104B1
:1008F20003197C2C7D2CB42CF701F70A8B2C0130C8
:100902000310F00DF10DFF3E031D812C0130F400A8
:100912007408F707F11F8E2C8F2C802C01300310E6
:10092200F50DF60DFF3E031D902C71087302031D99
:100932009C2C70087202031C9F2CA02CA72C700800
:10094200F2027108031CF303F30275140130031061
:10095200F10CF00CFF3E031DA82C0130F702031D21
:10096200B32CB42C8F2C7608F1007508F000080027
:10097200F6007603031DBE2CBF2CDC2C74087F3ED0
:10098200F9007908F50004300310F50CFF3E031D51
:10099200C52C7508F70079080F39F80077080A1294
:1009A2008A1130230A128A1178080A128A11302316
:1009B2000A128A11FE2C02307606031DE12CE22C6B
:1009C200FE2C7408BF3EF9007908F50004300310CC
:1009D200F50CFF3E031DE82C7508F70079080F3966
:1009E200F80077080A128A1130230A128A1178084D
:1009F2000A128A1130230A128A11080000300A12E0
:100A02008A1185230A128A113430F500F130F4007C
:100A1200F40B092DF50B092D0E2D03300A128A1144
:100A220030230A128A110D30F500FB30F400F40B6A
:100A3200182DF50B182D1D2D03300A128A113023A3
:100A42000A128A111D30F5009130F400F40B272DA3
:100A5200F50B272D03300A128A1130230A128A114C
:100A620002300A128A1130230A128A1102300A1243
:100A72008A1130230A128A1108300A128A1130238D
:100A82000A128A1100300A128A1130230A128A11BC
:100A92000C300A128A1130230A128A1100300A120B
:100AA2008A1130230A128A1106300A128A1130235F
:100AB2000A128A1108000030FC000030FB000030EE
:100AC200FA000030F900730872047104700403190B
:100AD2006B2D6C2DB92DFD01FD0A7C2D0130F80026
:100AE2000310F00DF10DF20DF30DF80B712D013025
:100AF200F8007808FD07F31F7F2D802D6F2D013040
:100B0200F8000310F90DFA0DFB0DFC0DF80B822D08
:100B120073087702031D972D72087602031D972D25
:100B220071087502031D972D70087402031C9A2D1B
:100B32009B2DAA2D7008F4027108031C710FF50297
:100B42007208031C720FF6027308031C730FF7027C
:100B5200791401300310F30CF20CF10CF00CFF3E8F
:100B6200031DAB2D0130FD02031DB82DB92D802DC3
:100B72007C08F3007B08F2007A08F1007908F000A3
:100B8200080083120313DD005330D9006E2E253086
:100B92005E060319CD2DCE2DD82D5D0884005E088A
:100BA200831380000130D5005508DD076E2ED80171
:100BB200DF2DC030D5005508D804F92D0130D207F9
:100BC200FF30520784000A128A1103200A128A1186
:100BD200DE00D500D6015608003A0319F12D6E2E1B
:100BE2005508003A03197E2E753A0319DA2D6E2E36
:100BF2005908840083130008DA00840A0008DB0025
:100C02000230D5005508D907DE01DE0A5E08D5009C
:100C12005507103E84000A128A1103200A128A1113
:100C2200D6000A128A1103200A128A11D700570825
:100C32005B02031D1E2E56085A020318212E222E75
:100C4200232E2D2E0130D5005508DE0705305E0615
:100C5200031D2C2E2D2E072E5E08DC00652E0A3079
:100C6200F8000030F9005C08D5005507103E8400FA
:100C72000A128A1103200A128A11F0000A128A113A
:100C820003200A128A11F1005B08F3005A08F200ED
:100C92000A128A1175240A128A117108FB0070085F
:100CA200FA000A128A113B240A128A117808303E8D
:100CB20083120313DE005D0884005E088313800044
:100CC2000130D5005508DD07FF30D5005508DC0797
:100CD2005C0A031D6D2E6E2E302E0130D207FF30BE
:100CE200520784000A128A1103200A128A11DE00B6
:100CF2005E08031D7D2E7E2EC82D5D0884008313A1
:100D0200800108000A128A114A230A128A110A1261
:100D12008A11FF240A128A11003083120313D500AC
:100D22000130D4008630D300A030D2000A128A11DA
:100D3200D5230A128A110A128A11FA220A128A1178
:100D42002D30F0000030F1000A128A110C230A1231
:100D52008A110830F0000030F1000A128A110C23C7
:100D62000A128A110A128A11F1220A128A113130E8
:100D7200F0000030F1000A128A110C230A128A11C3
:100D82000230F0000030F1000A128A110C230A121C
:100D92008A110A128A1103230A128A110A128A116B
:100DA200FA220A128A113230F0000030F1000A12DF
:100DB2008A110C230A128A110030F000F1000A1283
:100DC2008A11A7230A128A11700883120313A5003D
:100DD2000A128A11F1220A128A113330F00000300D
:100DE200F1000A128A110C230A128A110030F00053
:100DF200F1000A128A11A7230A128A1170088312BB
:100E02000313A4000A128A11F1220A128A11343041
:100E1200F0000030F1000A128A110C230A128A1122
:100E22000030F000F1000A128A11A7230A128A1177
:100E3200700883120313A3000A128A11F1220A1204
:100E42008A113530F0000030F1000A128A110C23A9
:100E52000A128A110030F000F1000A128A11A72347
:100E62000A128A11700883120313A2000A128A114D
:100E7200F1220A128A113630F0000030F1000A1213
:100E82008A110C230A128A110030F000F1000A12B2
:100E92008A11A7230A128A11700883120313A10070
:100EA2000A128A11F1220A128A113730F000003038
:100EB200F1000A128A110C230A128A110030F00082
:100EC200F1000A128A11A7230A128A1170088312EA
:100ED2000313A0000A128A1103230A128A11033093
:100EE20083120313E1000830E0007630DF00DF0BED
:100EF200782FE00B782FE10B782F00000A128A116D
:100F020023230A128A11831203132508A800230837
:100F1200A7002108A6001A30D2002808DF00E0014D
:100F22005F08D3006008D4003E300A128A11C2253D
:100F32000A128A111A3083120313D2002708DF0023
:100F4200E0015F08D3006008D4002A300A128A1137
:100F5200C2250A128A111A3083120313D2002608FC
:100F6200DF00E0015F08D3006008D400A0300A125D
:100F72008A11C2250A128A11F401F40A01300A12F6
:100F82008A11B9240A128A113E300A128A11642384
:100F92000A128A110530F40001300A128A11B924AA
:100FA2000A128A112A300A128A1164230A128A1139
:100FB2000C30F40001300A128A11B9240A128A1183
:100FC200A0300A128A1164230A128A11CF2E0A1241
:100FD2008A11002883132030840052300A128A11A9
:100FE200E9220A128A11A0308400B4300A128A114E
:0E0FF200E9220A128A1183010A128A11832E43
:08400000FF3FFF3FFF3FFF3FC0
:04400E00D520FF3F7B
:00000001FF
