:060000000A128A110E280D
:10000800FE00030EF4000A08F5007F08F6000A1245
:100018008A1119280A128A111128F001F101F20136
:10002800F30183010A128A1155280B1C1C281D286C
:100038001E2800000B1D212822284C287108803A10
:10004800FF0080307F02031D2B2820307002031828
:100058002E282F2835280130F0070318F10A003020
:10006800F1071F3070067104031D3B283C284828FF
:100078000130F2070318F30A0030F30772088312FD
:1000880003138500F001F1010B11831203138101A1
:100098007608FF0075088A00740E8300FE0E7E0E37
:1000A80009000A128A1180200A128A118312031386
:1000B80006185F2860286C28061C632864286028B6
:1000C8000130F2070318F30A0030F30772088700BB
:1000D80086186F2870285A28861C73287428702858
:1000E800FF30F2070318F30AFF30F307720887009E
:1000F8005A280A128A110E2803308316031788001B
:1001080089018316031385018701FF308600811357
:10011800FF30950083120313870185017030831621
:1001280003138F040F148112011281110115811418
:1001380001148312031381010B118B160B178B17F4
:020148000800AD
:08400000FF3FFF3FFF3FFF3FC0
:04400E00D520FF3F7B
:00000001FF
