:060000000A128A110C280F
:10000800FE00030EF0000A08F1000A128A111D2AE8
:100018000A128A110F28FA01FB0183132030840089
:1000280035300A128A1115220A128A1183010A121E
:100038008A11BE28831203133B08BF003C08C00086
:100048003D08C1003E08C20004300310BF0DC00DBA
:10005800C10DC20DFF3E031D29284208F5004108C5
:10006800F4004008F3003F08F2000030F9007A304D
:10007800F8001230F7000030F6000A128A112F211A
:100088000A128A117208FF3E83120313C300730811
:100098000318013EFF3EC400C41F532854285628A5
:1000A800C301C4014408803AFF0081307F02031D68
:1000B8005F2800304302031C62286328B12883129A
:1000C80003133B08BF003C08C0003D08C1003E08C0
:1000D800C20006300310BF0DC00DC10DC20DFF3E9A
:1000E800031D6E284208F5004108F4004008F3009B
:1000F8003F08F2000030F9007A30F8001230F700BB
:100108000030F6000A128A112F210A128A11720889
:10011800FF3E83120313C30073080318013EFF3E1A
:10012800C4004408803AFF0081307F02031D9E28E6
:1001380000304302031CA128A228A828FF308312FC
:100148000313C3000030C40083120313430883164B
:100158000313990020309800B92883120313430829
:1001680083160313990024309800903083120313E8
:10017800980008000A128A11F2210A128A117030B6
:10018800831603138F00003083120313BE00003060
:10019800BD002530BC008030BB000A128A111E2029
:1001A8000A128A11153083120313C7004B30C60098
:1001B800BD30C500C50BDE28C60BDE28C70BDE2800
:1001C800E5286430FB003230FA001830831203133C
:1001D800A0006430A1003230A5001830A90010300A
:1001E800F3008030F4000A128A1197210A128A114A
:1001F8002130F3000030F4000A128A1197210A1204
:100208008A11083083120313C7001B30C60026303A
:10021800C500C50B0D29C60B0D29C70B0D290000FC
:100228000A128A110B220A128A11031C1C291D2981
:10023800E5280A128A11E4210A128A11831203138B
:10024800C80048080A128A11FF210A128A11E528F3
:100258000A128A110C28003083120313B9000030E7
:10026800B8000030B7000030B60075087404730495
:1002780072040319402941298E29BA01BA0A512961
:100288000130B5000310F20DF30DF40DF50DB50BAB
:1002980046290130FF007F08BA07F51F5429552960
:1002A80044290130B5000310B60DB70DB80DB90DCE
:1002B800B50B572975087902031D6C297408780253
:1002C800031D6C2973087702031D6C2972087602D6
:1002D800031C6F2970297F297208F6027308031C12
:1002E800730FF7027408031C740FF8027508031CD7
:1002F800750FF902361401300310F50CF40CF30CE9
:10030800F20CFF3E031D80290130BA02031D8D291E
:100318008E2955293908F5003808F4003708F30004
:100328003608F2000800F501AE2975087307840045
:1003380074080318740AFF000A128A11C2210A12EB
:100348008A110A128A11FF210A128A110130FF004C
:100358007F08F50775087307840074080318740A82
:1003680083120313FF000A128A11C2210A128A118A
:10037800003A031DC029C12999290800FF1BCC296F
:1003880083137F1883170008840A0319FF0A0800DB
:1003980001308A000408840A8207003432342E347B
:1003A80045346E34763469346134723420344134DF
:1003B800733463346934693400340D340A340034D6
:1003C800831203138C1EE929EA29E429981CED29D4
:1003D800EE29F029181218161A08080083160317B0
:1003E8008801890183160313880183120313880186
:1003F8000B178B170800F20083160313981C052AA5
:10040800062A002A7208831203139900080083122F
:1004180003138C1A102A112A132A0310142A0314FE
:10042800080064008001840A0406031900340406E5
:10043800162A000071088A00700E8300FE0E7E0ED8
:020448000900A9
:08400000FF3FFF3FFF3FFF3FC0
:04400E00D538FF3F63
:00000001FF
