:100000000A128A11EB2FFF1B0D2883137F18831709
:100010000008840A0319FF0A080000308A00040857
:10002000840A8207003432342E3445346E347634F8
:100030006934613472342034413473346334693444
:1000400069340034013400340A3400346434003438
:10005000E834033410342734683465347934003498
:0600600025347534003464
:1003720064008001840A0406031900340406BA29C1
:100382000A128A11E6210A128A11831603139114A2
:1003920008000A128A11E6210A128A11831603132F
:1003A200111408000A128A11E6210A128A11831610
:1003B2000313111508000A128A11E6210A128A1182
:1003C2007008831203139300080083160313141991
:1003D200EB29EC29E62911081F39031DF129F2291D
:1003E200E629080000300A128A1100220A128A1134
:1003F20001300A128A1100220A128A110800F3003F
:1004020083120313081173080A128A1134220A1282
:100412008A118312031388150B30F2006230F10047
:10042200F10B112AF20B112A000083120313881117
:1004320008008316031788018901831603138710A6
:10044200071107138713850186018801831203139D
:1004520085018601880187140715703083160313FE
:100462008F040F140800F000701C382A392A3D2A24
:10047200831203130816402A831203130812F01C76
:10048200432A442A462A8816472A8812701D4A2A75
:100492004B2A4D2A08174E2A0813F01D512A522AB8
:1004A200542A8817552A881308000A128A11E6214D
:1004B2000A128A118316031391150A128A11E62170
:1004C2000A128A11831203131308F200F30172084D
:1004D200F4007308F5000A128A11E6210A128A1141
:1004E20070037104031D762A772A7B2A831603136D
:1004F20091127E2A83160313911611167508F100C4
:100502007408F00008002830831203139400530883
:10051200D7005408D8005508D9005608DA0002302E
:100522000310D70DD80DD90DDA0DFF3E031D912A08
:100532005A08F3005908F2005808F1005708F00071
:100542000030F7007A30F6001230F5000030F40087
:100552000A128A114D240A128A117008FF3E83166C
:100562000313930094010800F40074080F39F20099
:100572007408F039F3008312031308157308F100AD
:1005820004300310F10CFF3E031DC22A71080A1247
:100592008A1134220A128A118312031388151A301F
:1005A200F100F10BD22A00008312031388117208A2
:1005B2000A128A1134220A128A118312031388152D
:1005C2001A30F100F10BE32A0000831203138811A1
:1005D2000800770878040319EF2AF02A1F2BFB0181
:1005E200FB0AFE2A01300310F70DF80DFF3E031D32
:1005F200F42A0130FF007F08FB07F81F012B022BB2
:10060200F32A78087A02031D082B77087902031C63
:100612000B2B0C2B122B7708F9027808031CFA0318
:10062200FA0201300310F80CF70CFF3E031D132BE6
:100632000130FB02031D1E2B1F2B022B7A08F80030
:100642007908F7000800FA01FB01492B7A087507BF
:10065200F8007608F7000318F70AFA1F312BF703A0
:100662007708F900790883120313FF0078088400E1
:100672000A128A1103200A128A110A128A11B52259
:100682000A128A110130FA070318FB0A0030FB072D
:100692007A087507F8007608F7000318F70AFA1FB8
:1006A200532BF7037708F900790883120313FF002D
:1006B200780884000A128A1103200A128A11003A69
:1006C200031D642B652B272B0800F401F50170082C
:1006D200710403196D2B6E2BA52BF601F60A7C2BE8
:1006E20001300310F00DF10DFF3E031D722B01309E
:1006F200FF007F08F607F11F7F2B802B712B013043
:100702000310F40DF50DFF3E031D812B71087302DA
:10071200031D8D2B70087202031C902B912B982BBA
:100722007008F2027108031CF303F302741401301F
:100732000310F10CF00CFF3E031D992B0130F60261
:10074200031DA42BA52B802B7508F1007408F00063
:100752000800F6007603031DAF2BB02BCD2B7408D7
:100762007F3EF9007908F50004300310F50CFF3ED6
:10077200031DB62B7508F70079080F39F8007708C2
:100782000A128A1100220A128A1178080A128A11A0
:1007920000220A128A11EF2B02307606031DD22B99
:1007A200D32BEF2B7408BF3EF9007908F500043013
:1007B2000310F50CFF3E031DD92B7508F7007908CD
:1007C2000F39F80077080A128A1100220A128A11D8
:1007D20078080A128A1100220A128A1108000030CF
:1007E2000A128A1134220A128A113430F500F130C9
:1007F200F400F40BFA2BF50BFA2BFF2B03300A1241
:100802008A1100220A128A110D30F500FB30F40021
:10081200F40B092CF50B092C0E2C03300A128A1149
:1008220000220A128A111D30F5009130F400F40BF7
:10083200182CF50B182C03300A128A1100220A1206
:100842008A1102300A128A1100220A128A11023017
:100852000A128A1100220A128A1108300A128A1117
:1008620000220A128A1100300A128A1100220A1288
:100872008A110C300A128A1100220A128A110030DF
:100882000A128A1100220A128A1106300A128A11E9
:1008920000220A128A1108000030FC000030FB001E
:1008A2000030FA000030F900730872047104700419
:1008B20003195C2C5D2CAA2CFD01FD0A6D2C013064
:1008C200F8000310F00DF10DF20DF30DF80B622C90
:1008D2000130FF007F08FD07F31F702C712C602C84
:1008E2000130F8000310F90DFA0DFB0DFC0DF80BA9
:1008F200732C73087702031D882C72087602031D7D
:10090200882C71087502031D882C70087402031C60
:100912008B2C8C2C9B2C7008F4027108031C710F19
:10092200F5027208031C720FF6027308031C730FA0
:10093200F702791401300310F30CF20CF10CF00CF5
:10094200FF3E031D9C2C0130FD02031DA92CAA2C85
:10095200712C7C08F3007B08F2007A08F100790818
:10096200F0000800F501F11FB72CB82CBF2CF009DC
:10097200F109F00A0319F10AF501F50AF31FC22C75
:10098200C32CCC2CF209F309F20A0319F30A013041
:10099200FF007F08F506F601F701700871040319DC
:1009A200D32CD42C0B2DF401F40AE22C01300310C9
:1009B200F00DF10DFF3E031DD82C0130FF007F0822
:1009C200F407F11FE52CE62CD72C01300310F60DAD
:1009D200F70DFF3E031DE72C71087302031DF32C74
:1009E20070087202031CF62CF72CFE2C7008F2021F
:1009F2007108031CF303F302761401300310F10CA7
:100A0200F00CFF3E031DFF2C0130F402031D0A2DE2
:100A12000B2DE62C750803190F2D102D152DF60937
:100A2200F709F60A0319F70A7708F1007608F000C9
:100A3200080083120313DE005430DA00C62D25307D
:100A42005F060319252D262D302D5E0884005F08D0
:100A5200831380000130FF007F08DE07C62DD90115
:100A6200372DC030FF007F08D904512D0130D30744
:100A7200FF30530784000A128A110D200A128A11CC
:100A8200DF00D600D7015708003A0319492DC62DB9
:100A92005608003A0319D62D753A0319322DC62D80
:100AA2005A08840083130008DB00840A0008DC0073
:100AB2000230FF007F08DA07DF01DF0A5F08D60095
:100AC2005607103E84000A128A110D200A128A115A
:100AD200D7000A128A110D200A128A11D80058086A
:100AE2005C02031D762D57085B020318792D7A2DBF
:100AF2007B2D852D0130FF007F08DF0705305F0663
:100B0200031D842D852D5F2D5F08DD00BD2D0A306C
:100B1200F7000030F8005D08D6005607103E84004A
:100B22000A128A110D200A128A11F0000A128A1181
:100B32000D200A128A11F1005C08F3005B08F20032
:100B42000A128A1166230A128A117108FA007008C1
:100B5200F9000A128A11EA220A128A117708303E33
:100B620083120313DF005E0884005F088313800092
:100B72000130FF007F08DE07FF30FF007F08DD073E
:100B82005D0A031DC52DC62D882D0130D307FF3008
:100B9200530784000A128A110D200A128A11DF00FB
:100BA2005F08031DD52DD62D202D5E0884008313EA
:100BB200800108000A128A111A220A128A110A12E4
:100BC2008A11F0230A128A11003083120313D6000D
:100BD2000130D5008630D400A030D3000A128A1129
:100BE20084220A128A110A128A11CA210A128A114D
:100BF2003830F0000030F1000A128A11DC210A12AA
:100C02008A119F30F0000030F1000A128A11DC21B3
:100C12000A128A110A128A11C1210A128A1131306A
:100C2200F0000030F1000A128A11DC210A128A1146
:100C32000930F0000030F1000A128A11DC210A1298
:100C42008A110A128A11C1210A128A112C30F0006B
:100C52000030F1000A128A11DC210A128A110D30C9
:100C6200F0000030F1000A128A11DC210A128A1106
:100C72000A128A11C1210A128A112D30F0000030A5
:100C8200F1000A128A11DC210A128A110830F000DE
:100C92000030F1000A128A11DC210A128A110A12AA
:100CA2008A11D3210A128A110A128A11CA210A123E
:100CB2008A11A630F0000030F1000A128A11DC21FC
:100CC2000A128A113230F0000030F1000A128A1141
:100CD200DC210A128A110A128A11C1210A128A110E
:100CE200A730F0000030F1000A128A11DC210A124A
:100CF2008A113230F0000030F1000A128A11DC2130
:100D02000A128A110030F000F1000A128A115622EA
:100D12000A128A11700883120313A5000A128A119B
:100D2200C1210A128A11A730F0000030F1000A1224
:100D32008A11DC210A128A113330F0000030F100EE
:100D42000A128A11DC210A128A110030F000F10025
:100D52000A128A1156220A128A1170088312031388
:100D6200A4000A128A11C1210A128A11A730F000C6
:100D72000030F1000A128A11DC210A128A11343081
:100D8200F0000030F1000A128A11DC210A128A11E5
:100D92000030F000F1000A128A1156220A128A115A
:100DA200700883120313A3000A128A11C1210A12C6
:100DB2008A11A730F0000030F1000A128A11DC21FA
:100DC2000A128A113530F0000030F1000A128A113D
:100DD200DC210A128A110030F000F1000A128A1195
:100DE20056220A128A11700883120313A2000A12F1
:100DF2008A11C1210A128A11A730F0000030F100D5
:100E02000A128A11DC210A128A113630F0000030EF
:100E1200F1000A128A11DC210A128A110030F00054
:100E2200F1000A128A1156220A128A1170088312DC
:100E32000313A1000A128A11C1210A128A11A730D2
:100E4200F0000030F1000A128A11DC210A128A1124
:100E52003730F0000030F1000A128A11DC210A1248
:100E62008A110030F000F1000A128A1156220A1289
:100E72008A11700883120313A0000A128A11D32167
:100E82000A128A11043083120313E2000C30E100CB
:100E92003330E000E00B4B2FE10B4B2FE20B4B2FDB
:100EA2000A128A11F3210A128A11831203132508E6
:100EB200A9002308A8002108A7000030F000013093
:100EC200F1002908E000E1016008F2006108F30086
:100ED2000A128A11B3240A128A11700883120313A8
:100EE200A6001E30D3002608E000E1016008D4000D
:100EF2006108D5003F300A128A111A250A128A1196
:100F02001E3083120313D3002808E000E1016008B9
:100F1200D4006108D5002B300A128A111A250A1250
:100F22008A111E3083120313D3002708E000E10167
:100F32006008D4006108D500A0300A128A111A256F
:100F42000A128A11F401F40A01300A128A11AA2340
:100F52000A128A113F30F5000030F6000A128A1197
:100F620024230A128A110530F40001300A128A1170
:100F7200AA230A128A112B30F5000030F6000A1259
:100F82008A1124230A128A110C30F40001300A1249
:100F92008A11AA230A128A11A030F5000030F60045
:100FA2000A128A1124230A128A11F401F40A023065
:100FB2000A128A11AA230A128A111A30F500803005
:100FC200F6000A128A1124230A128A11552E0A12D5
:100FD2008A11002883132030840053300A128A11A8
:100FE200B9210A128A11A0308400B4300A128A117F
:0E0FF200B9210A128A1183010A128A11DB2D1D
:08400000FF3FFF3FFF3FFF3FC0
:04400E00D520FF3F7B
:00000001FF
