:060000000A128A110C280F
:10000800FE00030EF1000A08F2000A128A11C12E3E
:100018000A128A110F2883120313D801D901DA01B1
:1000280083010A128A119E2983120313B6002C3009
:10003800B1008929253039060319232824282E28B8
:10004800360884003908831380000130FF007F08D8
:10005800B6078929B701B801B2013728321501302E
:10006800FF007F08AB072B0884000A128A118A2533
:100078000A128A11AE00AF012F08003A0319452869
:100088004A282E08303A031932284A282B088400B7
:100098000A128A118A250A128A110A128A1100275D
:1000A8000A128A11031C59285A28A02883120313FC
:1000B800B701B8010A30F3000030F40083120313CB
:1000C8003808F6003708F5000A128A119C260A1229
:1000D8008A11740883120313B8007308B7002B0839
:1000E80084000A128A118A250A128A11D03EAE00AB
:1000F800FF3003180030AF002E08B7070318B80AFE
:100108002F08B8070130FF007F08AB072B088400D1
:100118000A128A118A250A128A110A128A110027DC
:100128000A128A11031899289A285E28A028C03034
:10013800FF007F08B204BC28013083120313AB0709
:10014800FF302B0784000A128A118A250A128A11A5
:10015800B900AE00AF012F08003A0319B428892965
:100168002E08003A03199929753A03199B288929F9
:100178003108840083130008B300840A0008B4001F
:100188000230FF007F08B107B901B90A3908AE008B
:100198002E07013E84000A128A118A250A128A1142
:1001A800AF000A128A118A250A128A11B000300893
:1001B8003402031DE1282F0833020318E428E52838
:1001C800E628F0280130FF007F08B9070530390616
:1001D800031DEF28F028CA283808803A803C031D00
:1001E800F728370839020318FA28FB280729831249
:1001F80003133908AE00AF012E08B7022F08031CFD
:10020800B803B8020B2983120313B701B801321DD2
:100218000E290F292B293708380403191429152901
:100228004629360884003030831380000130FF00EF
:100238007F08B607FF30B7070318B80AFF30B807BA
:1002480037083804031D29292A291529462937087A
:10025800380403193029312946293608840020300A
:10026800831380000130FF007F08B607FF30B7070F
:100278000318B80AFF30B80737083804031D4529A2
:10028800462931293908B50080290A30A7000030ED
:10029800A8003508AE002E07013E84000A128A1114
:1002A8008A250A128A11A0000A128A118A250A12BE
:1002B8008A11A1003408A3003308A2000A128A1187
:1002C800C7250A128A11831203132108AA002008DD
:1002D800A9000A128A110D260A128A118312031321
:1002E8002708303EB9003608840039088313800097
:1002F8000130FF007F08B607FF30FF007F08B50711
:10030800350A031D8829892949290130AB07FF309F
:100318002B0784000A128A118A250A128A11B90049
:100328003908031D982999291E2836088400831343
:10033800800108000A128A1174260A128A11703084
:10034800831603138F00003083120313A9000030B3
:10035800A8002530A7008030A6000A128A119A2327
:100368000A128A11153083120313CB004B30CA00CE
:10037800BD30C900C90BBE29CA0BBE29CB0BBE298B
:10038800C5291A30F4008030F5000A128A1149266E
:100398000A128A110B3083120313CB002630CA00CD
:1003A8005D30C900C90BD629CA0BD629CB0BD62973
:1003B8000B30F4008030F5000A128A1149260A121F
:1003C8008A110B3083120313CB002630CA005D302C
:1003D800C900C90BED29CA0BED29CB0BED292E302D
:1003E800F4008030F5000A128A1149260A128A118F
:1003F800831203139F14831203139F18042A052AD8
:10040800062A9F140130D8070318D90A0030D907E3
:1004180058088800083083120313CB001B30CA0029
:100428002630C900C90B162ACA0B162ACB0B162A66
:1004380000002E30F4008030F5000A128A11492697
:100448000A128A11313083120313AB005908AD0028
:100458005808AC004C300A128A1118200A128A1166
:100468004C30F4000030F5000A128A1149260A12AD
:100478008A11AC2A1E08DA005A08C900CA014908BC
:10048800B5004A08B6000030B700B800FF30B90020
:100498000030BA000030BB00BC000530BD000030A1
:1004A800BE000A128A111A250A128A11831203132E
:1004B8003608D6003508D5002E30F4008030F50017
:1004C8000A128A1149260A128A113130831203133B
:1004D800AB005608AD005508AC004C300A128A1122
:1004E80018200A128A114C30F4000030F5000A1264
:1004F8008A1149260A128A110A128A11ED260A124D
:100508008A113030831203139A00C52A06308312E9
:100518000313CA002F30C900C90B902ACA0B902AAE
:10052800952A0130FF007F08831203138807852A64
:10053800063083120313CA002F30C900C90BA22A40
:10054800CA0BA22AA72A0130831203138802852A1C
:100558000A128A11DA260A128A1183120313C900B1
:10056800CA014A08003A0319BA2AC52A49082B3A87
:1005780003198A2A063A03199C2A1C3A03193E2AA7
:10058800C52A0A128A112C270A128A11031CCD2A9D
:10059800CE2AFF290A128A1112270A128A118312F7
:1005A8000313D70057080A128A1120270A128A1142
:1005B800FF290A128A110C2883120313AF002F088F
:1005C8000319E72AE82AFC2AAA1FEB2AEC2AFC2AA4
:1005D8002709B1002809B2002909B3002A09B40083
:1005E800B10A0319B20A0319B30A0319B40A042B8E
:1005F8002A08B4002908B3002808B2002708B10067
:100608002A08290428042704031D0B2B0C2B152B5F
:100618000030AA000030A9000030A8000030A70070
:10062800992B9630B000252B0130FF007F08B007CA
:1006380001300310B40CB30CB20CB10CFF3E031D17
:100648001D2BFE303405031D2A2B2B2B182B472B73
:100658000130FF007F08B0070130B10700300318F0
:100668000130B207003003180130B3070030031817
:100678000130B40701300310B40CB30CB20CB10C48
:10068800FF3E031D3F2BFF303405031D4C2B4D2B24
:100698002C2B592B0130B0020130AB000310B10DE7
:1006A800B20DB30DB40DAB0B522BB31B5C2B5D2BF2
:1006B800632B023030020318622B632B4E2B301849
:1006C800662B672B6F2BFF30B105FF30B2057F30EB
:1006D800B305FF30B4050310B00C3008AB00AC0113
:1006E800AD01AE0118300310AB0DAC0DAD0DAE0D64
:1006F800FF3E031D772B2B08B1042C08B2042D08EC
:10070800B3042E08B4042F0803198B2B8C2B912BC0
:10071800AA1F8F2B902B912BB4173408AA003308EB
:10072800A9003208A8003108A700080083120313A3
:100738002608AA002708AB002808AC002908AD0045
:1007480004300310AA0DAB0DAC0DAD0DFF3E031D1B
:10075800A52B2D08F6002C08F5002B08F4002A0814
:10076800F3000030FA007A30F9001230F800003057
:10077800F7000A128A11B2240A128A117308FF3E7E
:1007880083120313AE0074080318013EFF3EAF0046
:10079800AF1FCF2BD02BD22BAE01AF012F08803A41
:1007A800FF0081307F02031DDB2B00302E02031C6B
:1007B800DE2BDF2B2D2C831203132608AA00270813
:1007C800AB002808AC002908AD0006300310AA0DBC
:1007D800AB0DAC0DAD0DFF3E031DEA2B2D08F60049
:1007E8002C08F5002B08F4002A08F3000030FA0062
:1007F8007A30F9001230F8000030F7000A128A1136
:10080800B2240A128A117308FF3E83120313AE0042
:1008180074080318013EFF3EAF002F08803AFF001E
:1008280081307F02031D1A2C00302E02031C1D2C60
:100838001E2C242CFF3083120313AE000030AF00AF
:10084800831203132E08831603139900203098008F
:10085800352C831203132E088316031399002430B2
:100868009800903083120313980008000310750D48
:10087800760D83120313A1002108031D442C452C77
:100888004E2C0030F6000030F5000030F400003047
:10089800F300B12C7308F7007408F8007508F90024
:1008A8007608FA001F300310FA0CF90CF80CF70C54
:1008B800FF3E031D572C7708A000F517FF30F305FE
:1008C800FF30F405FF30F5050030F6059630A1023B
:1008D800A11F6F2C702C8A2C2108803A973E031890
:1008E800762C772C782C452C01300310F60CF50C5F
:1008F800F40CF30CFF3E031D792C0130FF007F0838
:10090800A107031D882C892C782CA12C20302102CA
:10091800031C8F2C902C9C2C452C0130F7000310C5
:10092800F30DF40DF50DF60DF70B932C0130A10224
:100938002108031DA02CA12C912C20080319A52CFB
:10094800A62CB12CF309F409F509F609F30A0319E1
:10095800F40A0319F50A0319F60A0800003083128D
:100968000313A4000030A3000030A2000030A1004F
:1009780076087504740473040319C32CC42C112D50
:10098800A501A50AD42C0130A0000310F30DF40D25
:10099800F50DF60DA00BC92C0130FF007F08A50747
:1009A800F61FD72CD82CC72C0130A0000310A10D9E
:1009B800A20DA30DA40DA00BDA2C76087A02031D54
:1009C800EF2C75087902031DEF2C74087802031DBB
:1009D800EF2C73087702031CF22CF32C022D7308FA
:1009E800F7027408031C740FF8027508031C750FCE
:1009F800F9027608031C760FFA022114013003105D
:100A0800F60CF50CF40CF30CFF3E031D032D01301E
:100A1800A502031D102D112DD82C2408F60023083B
:100A2800F5002208F4002108F300080083120313DC
:100A38003B083D02F5003C08031C3C0A3E02F60058
:100A480037083502F3003808031C380A3602F40068
:100A58000A128A119C260A128A1174088312031337
:100A6800A3007308A20037083902A0003808031C45
:100A7800380A3A02A1000A128A11C7250A128A11F5
:100A8800831203133B082007BF003C0803183C0AE5
:100A98002107C0003F08C1004008C200C301C401CB
:100AA8004408AA004308A9004208A8004108A70072
:100AB80000300A128A11E0220A128A1183120313E3
:100AC8002A08C8002908C7002808C6002708C50042
:100AD8004808F6004708F5004608F4004508F30002
:100AE8000A128A113A240A128A117408831203130B
:100AF800B6007308B5000800FF1B8A2D83137F1802
:100B080083170008840A0319FF0A080005308A00C1
:100B18000408840A82070034013400340A3400349B
:100B280064340034E83403341034273432342E3437
:100B380045346E3476346934613472342034413447
:100B48007334633469346934003431342E344C34AA
:100B5800653465347234203470346F3474346534D9
:100B68006E34633469346F346D346534743472347C
:100B78006F340D340A34003425343034333475344A
:100B88000D340A34003483120313A401A50120088C
:100B980021040319D02DD12D082EA601A60ADF2D78
:100BA80001300310A00DA10DFF3E031DD52D01300E
:100BB800FF007F08A607A11FE22DE32DD42D0130E9
:100BC8000310A40DA50DFF3E031DE42D21082302EB
:100BD800031DF02D20082202031CF32DF42DFB2DFC
:100BE8002008A2022108031CA303A3022414013035
:100BF8000310A10CA00CFF3E031DFC2D0130A60222
:100C0800031D072E082EE32D2508A1002408A000A7
:100C1800080083120313270828040319142E152E1D
:100C2800442EF901F90A232E01300310A70DA80D4F
:100C3800FF3E031D192E0130FF007F08F907A81F8A
:100C4800262E272E182E28082A02031D2D2E2708A7
:100C58002902031C302E312E372E2708A902280816
:100C6800031CAA03AA0201300310A80CA70CFF3E1C
:100C7800031D382E0130F902031D432E442E272E62
:100C88002A08A8002908A7000800F601602E76089F
:100C98007407840075080318750AFF000A128A1180
:100CA80080250A128A110A128A1120270A128A112B
:100CB8000130FF007F08F60776087407840075087E
:100CC8000318750A83120313FF000A128A1180257C
:100CD8000A128A11003A031D722E732E4B2E080039
:100CE80003308316031788008901FF308316031326
:100CF80085008801831203138801831603139F1349
:100D08001F129F12831203131F083F3940389F0098
:100D1800C3309F051F142130F300F30B912E83126B
:100D280003130C13831603130C170B178B170800E8
:100D3800F701F801731CA12EA22EA82E7508F7073B
:100D48000318F80A7608F80701300310F50DF60DB8
:100D5800FF3E031DA92E01300310F40CF30CFF3ED7
:100D6800031DB02E73087404031DBB2EBC2E9E2ECB
:100D78007808F4007708F3000800831203130C1FA7
:100D8800C62EC72ED32E1F0CF000700C0F39003A58
:100D9800031DCF2ED02ED22E1E08DA000C13720897
:100DA8008A00710E8300FE0E7E0E09008312031363
:100DB8008C1ADF2EE02EEB2E981CE32EE42EE92E63
:100DC800181200008312031318161A08EC2E0030AC
:100DD80008001A30F4008030F5000A128A114926FA
:100DE8000A128A110B30F4008030F5000A128A11B9
:100DF80049260A128A110800F400F3013A307402F5
:100E08000318072F082F102F30307402031C0D2FE2
:100E18000E2F102FF301F30A730C0800831203132B
:100E28008C1E172F182F122F981C1B2F1C2F1E2FAC
:100E3800181218161A080800F30083160313981CD2
:100E4800262F272F212F73088312031399000800D8
:100E5800831203138C1A312F322F342F0310352F9E
:040E68000314080067
:08400000FF3FFF3FFF3FFF3FC0
:04400E00D538FF3F63
:00000001FF
