:060000000A128A110C280F
:10000800FE00030EF1000A08F2000A128A11D02E2F
:100018000A128A110F2883120313D801D901DA01B1
:1000280083010A128A119E2983120313B6002C3009
:10003800B1008929253039060319232824282E28B8
:10004800360884003908831380000130FF007F08D8
:10005800B6078929B701B801B2013728321501302E
:10006800FF007F08AB072B0884000A128A11992524
:100078000A128A11AE00AF012F08003A0319452869
:100088004A282E08303A031932284A282B088400B7
:100098000A128A1199250A128A110A128A110F273F
:1000A8000A128A11031C59285A28A02883120313FC
:1000B800B701B8010A30F3000030F40083120313CB
:1000C8003808F6003708F5000A128A11AB260A121A
:1000D8008A11740883120313B8007308B7002B0839
:1000E80084000A128A1199250A128A11D03EAE009C
:1000F800FF3003180030AF002E08B7070318B80AFE
:100108002F08B8070130FF007F08AB072B088400D1
:100118000A128A1199250A128A110A128A110F27BE
:100128000A128A11031899289A285E28A028C03034
:10013800FF007F08B204BC28013083120313AB0709
:10014800FF302B0784000A128A1199250A128A1196
:10015800B900AE00AF012F08003A0319B428892965
:100168002E08003A03199929753A03199B288929F9
:100178003108840083130008B300840A0008B4001F
:100188000230FF007F08B107B901B90A3908AE008B
:100198002E07013E84000A128A1199250A128A1133
:1001A800AF000A128A1199250A128A11B000300884
:1001B8003402031DE1282F0833020318E428E52838
:1001C800E628F0280130FF007F08B9070530390616
:1001D800031DEF28F028CA283808803A803C031D00
:1001E800F728370839020318FA28FB280729831249
:1001F80003133908AE00AF012E08B7022F08031CFD
:10020800B803B8020B2983120313B701B801321DD2
:100218000E290F292B293708380403191429152901
:100228004629360884003030831380000130FF00EF
:100238007F08B607FF30B7070318B80AFF30B807BA
:1002480037083804031D29292A291529462937087A
:10025800380403193029312946293608840020300A
:10026800831380000130FF007F08B607FF30B7070F
:100278000318B80AFF30B80737083804031D4529A2
:10028800462931293908B50080290A30A7000030ED
:10029800A8003508AE002E07013E84000A128A1114
:1002A80099250A128A11A0000A128A1199250A12A0
:1002B8008A11A1003408A3003308A2000A128A1187
:1002C800D6250A128A11831203132108AA002008CE
:1002D800A9000A128A111C260A128A118312031312
:1002E8002708303EB9003608840039088313800097
:1002F8000130FF007F08B607FF30FF007F08B50711
:10030800350A031D8829892949290130AB07FF309F
:100318002B0784000A128A1199250A128A11B9003A
:100328003908031D982999291E2836088400831343
:10033800800108000A128A1183260A128A11703075
:10034800831603138F00003083120313A9000030B3
:10035800A8002530A7008030A6000A128A11A92318
:100368000A128A11153083120313CB004B30CA00CE
:10037800BD30C900C90BBE29CA0BBE29CB0BBE298B
:10038800C5291A30F4008030F5000A128A1158265F
:100398000A128A110B3083120313CB002630CA00CD
:1003A8005D30C900C90BD629CA0BD629CB0BD62973
:1003B8000B30F4008030F5000A128A1158260A1210
:1003C8008A110B3083120313CB002630CA005D302C
:1003D800C900C90BED29CA0BED29CB0BED292E302D
:1003E800F4008030F5000A128A1158260A128A1180
:1003F800831203139F14831203139F18042A052AD8
:10040800062A9F140130D8070318D90A0030D907E3
:1004180058088800083083120313CB001B30CA0029
:100428002630C900C90B162ACA0B162ACB0B162A66
:1004380000002E30F4008030F5000A128A11582688
:100448000A128A11313083120313AB005908AD0028
:100458005808AC004C300A128A1118200A128A1166
:100468004C30F4000030F5000A128A1158260A129E
:100478008A11083083120313CB001B30CA002630C0
:10048800C900C90B452ACA0B452ACB0B452A0000CF
:10049800BB2A1E08DA005A08C900CA014908B50073
:1004A8004A08B6000030B700B800FF30B900003085
:1004B800BA000030BB00BC000530BD000030BE00F3
:1004C8000A128A1129250A128A118312031336087F
:1004D800D6003508D5002E30F4008030F5000A1219
:1004E8008A1158260A128A11313083120313AB007D
:1004F8005608AD005508AC004C300A128A11182075
:100508000A128A114C30F4000030F5000A128A11E0
:1005180058260A128A110A128A11FC260A128A110E
:100528003030831203139A00D42A0630831203133F
:10053800CA002F30C900C90B9F2ACA0B9F2AA42AB8
:100548000130FF007F08831203138807942A0630BE
:1005580083120313CA002F30C900C90BB12ACA0B72
:10056800B12AB62A0130831203138802942A0A1288
:100578008A11E9260A128A1183120313C900CA01D3
:100588004A08003A0319C92AD42A49082B3A0319F8
:10059800992A063A0319AB2A1C3A03194D2AD42A78
:1005A8000A128A113B270A128A11031CDC2ADD2A47
:1005B800FF290A128A1121270A128A1183120313AA
:1005C800D70057080A128A112F270A128A11FF2901
:1005D8000A128A110C2883120313AF002F0803197B
:1005E800F62AF72A0B2BAA1FFA2AFB2A0B2B270914
:1005F800B1002809B2002909B3002A09B400B10AD8
:100608000319B20A0319B30A0319B40A132B2A08E7
:10061800B4002908B3002808B2002708B1002A0846
:10062800290428042704031D1A2B1B2B242B003014
:10063800AA000030A9000030A8000030A700A82BAD
:100648009630B000342B0130FF007F08B00701302E
:100658000310B40CB30CB20CB10CFF3E031D2C2BD1
:10066800FE303405031D392B3A2B272B562B01302E
:10067800FF007F08B0070130B107003003180130D0
:10068800B207003003180130B307003003180130F7
:10069800B40701300310B40CB30CB20CB10CFF3E1C
:1006A800031D4E2BFF303405031D5B2B5C2B3B2BAE
:1006B800682B0130B0020130AB000310B10DB20D50
:1006C800B30DB40DAB0B612BB31B6B2B6C2B722BC7
:1006D800023030020318712B722B5D2B3018752BEA
:1006E800762B7E2BFF30B105FF30B2057F30B30586
:1006F800FF30B4050310B00C3008AB00AC01AD01FD
:10070800AE0118300310AB0DAC0DAD0DAE0DFF3EB4
:10071800031D862B2B08B1042C08B2042D08B30442
:100728002E08B4042F0803199A2B9B2BA02BAA1F61
:100738009E2B9F2BA02BB4173408AA003308A900BE
:100748003208A8003108A7000800831203132608FE
:10075800AA002708AB002808AC002908AD0004301F
:100768000310AA0DAB0DAC0DAD0DFF3E031DB42B50
:100778002D08F6002C08F5002B08F4002A08F300D1
:100788000030FA007A30F9001230F8000030F70033
:100798000A128A11C1240A128A117308FF3E8312B1
:1007A8000313AE0074080318013EFF3EAF00AF1FED
:1007B800DE2BDF2BE12BAE01AF012F08803AFF00C3
:1007C80081307F02031DEA2B00302E02031CED2B23
:1007D800EE2B3C2C831203132608AA002708AB0033
:1007E8002808AC002908AD0006300310AA0DAB0D8F
:1007F800AC0DAD0DFF3E031DF92B2D08F6002C089E
:10080800F5002B08F4002A08F3000030FA007A30CB
:10081800F9001230F8000030F7000A128A11C124DA
:100828000A128A117308FF3E83120313AE0074087C
:100838000318013EFF3EAF002F08803AFF008130C9
:100848007F02031D292C00302E02031C2C2C2D2C7A
:10085800332CFF3083120313AE000030AF00831235
:1008680003132E0883160313990020309800442C94
:10087800831203132E08831603139900243098005B
:10088800903083120313980008000310750D760D3D
:1008980083120313A1002108031D532C542C5D2C33
:1008A8000030F6000030F5000030F4000030F300AE
:1008B800C02C7308F7007408F8007508F90076086A
:1008C800FA001F300310FA0CF90CF80CF70CFF3E75
:1008D800031D662C7708A000F517FF30F305FF30DD
:1008E800F405FF30F5050030F6059630A102A11F8A
:1008F8007E2C7F2C992C2108803A973E0318852C52
:10090800862C872C542C01300310F60CF50CF40CB3
:10091800F30CFF3E031D882C0130FF007F08A10760
:10092800031D972C982C872CB02C20302102031CF7
:100938009E2C9F2CAB2C542C0130F7000310F30D88
:10094800F40DF50DF60DF70BA22C0130A1022108CC
:10095800031DAF2CB02CA02C20080319B42CB52CE7
:10096800C02CF309F409F509F609F30A0319F40A86
:100978000319F50A0319F60A080000308312031355
:10098800A4000030A3000030A2000030A1007608C7
:100998007504740473040319D22CD32C202DA501DB
:1009A800A50AE32C0130A0000310F30DF40DF50D9A
:1009B800F60DA00BD82C0130FF007F08A507F61F05
:1009C800E62CE72CD62C0130A0000310A10DA20DB7
:1009D800A30DA40DA00BE92C76087A02031DFE2CAA
:1009E80075087902031DFE2C74087802031DFE2C7D
:1009F80073087702031C012D022D112D7308F702CD
:100A08007408031C740FF8027508031C750FF902AB
:100A18007608031C760FFA02211401300310F60C35
:100A2800F50CF40CF30CFF3E031D122D0130A5024A
:100A3800031D1F2D202DE72C2408F6002308F500A0
:100A48002208F4002108F3000800831203133B086E
:100A58003D02F5003C08031C3C0A3E02F60037083C
:100A68003502F3003808031C380A3602F4000A126B
:100A78008A11AB260A128A11740883120313A30081
:100A88007308A20037083902A0003808031C380A86
:100A98003A02A1000A128A11D6250A128A11831273
:100AA80003133B082007BF003C0803183C0A210732
:100AB800C0003F08C1004008C200C301C401440887
:100AC800AA004308A9004208A8004108A70000306E
:100AD8000A128A11EF220A128A11831203132A08B2
:100AE800C8002908C7002808C6002708C500480804
:100AF800F6004708F5004608F4004508F3000A1216
:100B08008A1149240A128A11740883120313B60041
:100B18007308B5000800FF1B992D83137F188317EE
:100B28000008840A0319FF0A080005308A0004082F
:100B3800840A82070034013400340A3400346434EF
:100B48000034E83403341034273432342E34453436
:100B58006E347634693461347234203441347334F9
:100B6800633469346934003431342E344C34653498
:100B780065347234203470346F34743465346E34B0
:100B8800633469346F346D346534743472346F345B
:100B98000D340A34003425343034333475340D348C
:100BA8000A34003483120313A401A5012008210488
:100BB8000319DF2DE02D172EA601A60AEE2D013010
:100BC8000310A00DA10DFF3E031DE42D0130FF0011
:100BD8007F08A607A11FF12DF22DE32D0130031088
:100BE800A40DA50DFF3E031DF32D21082302031DAF
:100BF800FF2D20082202031C022E032E0A2E200895
:100C0800A2022108031CA303A30224140130031029
:100C1800A10CA00CFF3E031D0B2E0130A602031DE4
:100C2800162E172EF22D2508A1002408A000080072
:100C380083120313270828040319232E242E532E66
:100C4800F901F90A322E01300310A70DA80DFF3E55
:100C5800031D282E0130FF007F08F907A81F352E35
:100C6800362E272E28082A02031D3C2E2708290283
:100C7800031C3F2E402E462E2708A9022808031CD5
:100C8800AA03AA0201300310A80CA70CFF3E031DFB
:100C9800472E0130F902031D522E532E362E2A08F4
:100CA800A8002908A7000800F6016F2E7608740727
:100CB800840075080318750AFF000A128A118F2527
:100CC8000A128A110A128A112F270A128A11013070
:100CD800FF007F08F6077608740784007508031874
:100CE800750A83120313FF000A128A118F250A124C
:100CF8008A11003A031D812E822E5A2E08000330D5
:100D08008316031788008901FF30831603138500B3
:100D18008801831203138801831603139F131F127C
:100D28009F12831203131F083F3940389F00C330B6
:100D38009F051F142130F300F30BA02E8312031319
:100D48000C13831603130C170B178B170800F701E6
:100D5800F801731CB02EB12EB72E7508F7070318CB
:100D6800F80A7608F80701300310F50DF60DFF3E76
:100D7800031DB82E01300310F40CF30CFF3E031DC5
:100D8800BF2E73087404031DCA2ECB2EAD2E78080F
:100D9800F4007708F3000800831203130C1FD52E04
:100DA800D62EE22E1F0CF000700C0F39003A031DEE
:100DB800DE2EDF2EE12E1E08DA000C1372088A00E0
:100DC800710E8300FE0E7E0E0900831203138C1A27
:100DD800EE2EEF2EFA2E981CF22EF32EF82E181265
:100DE80000008312031318161A08FB2E003008009F
:100DF8001A30F4008030F5000A128A1158260A12B7
:100E08008A110B30F4008030F5000A128A11582636
:100E18000A128A110800F400F3013A307402031828
:100E2800162F172F1F2F30307402031C1C2F1D2F55
:100E38001F2FF301F30A730C0800831203138C1E8F
:100E4800262F272F212F981C2A2F2B2F2D2F1812B2
:100E580018161A080800F30083160313981C352F78
:100E6800362F302F7308831203139900080083125A
:100E780003138C1A402F412F432F0310442F0314C0
:020E8800080060
:08400000FF3FFF3FFF3FFF3FC0
:04400E00D538FF3F63
:00000001FF
