:100000000A128A11ED2FFF1B0D2883137F18831707
:100010000008840A0319FF0A080000308A00040857
:10002000840A8207003432342E3445346E347634F8
:100030006934613472342034413473346334693444
:0E0040006934003448346F346C346134003459
:1008E4007E088A007F0882000A128A1172240A1282
:1008F4008A118000840A04087D0603190034FF0A63
:100904000319FE0A762C6434003402345E347634DF
:10091400613472346C343A3420343034303430340A
:100924003A343034303430343A343034303430348F
:100934000034F30083120313081173080A128A1196
:10094400CF240A128A118312031388150B30F20084
:100954006230F100F10BAC2CF20BAC2C00008312D2
:10096400031388110800831603178801890183166D
:100974000313860188018312031386018801003062
:10098400B9000130B8008630B700A030B6000A12B2
:100994008A1126250A128A110800F000701CD32C33
:1009A400D42CD82C831203130816DB2C83120313C4
:1009B4000812F01CDE2CDF2CE12C8816E22C8812A5
:1009C400701DE52CE62CE82C0817E92C0813F01D03
:1009D400EC2CED2CEF2C8817F02C88130800F40075
:1009E40074080F39F2007408F039F300831203130A
:1009F40008157308F10004300310F10CFF3E031DC9
:100A0400FE2C71080A128A11CF240A128A11831249
:100A1400031388151A30F100F10B0E2D0000831218
:100A24000313881172080A128A11CF240A128A1138
:100A34008312031388151A30F100F10B1F2D0000E7
:100A440083120313881108002830831203139400BF
:100A5400831603139101831203133608BA0037086F
:100A6400BB003808BC003908BD0002300310BA0DC1
:100A7400BB0DBC0DBD0DFF3E031D382D3D08F3001D
:100A84003C08F2003B08F1003A08F0000030F7009F
:100A94007A30F6001230F5000030F4000A128A11A0
:100AA4009C260A128A117008FF3E831603139300D2
:100AB4009401871507160800FA01FB01832D7A08B3
:100AC4007507F8007608F7000318F70AFA1F6B2D6C
:100AD400F7037708F900790883120313FF007808F5
:100AE40084000A128A1103200A128A110A128A1136
:100AF400F1240A128A110130FA070318FB0A0030A4
:100B0400FB077A087507F8007608F7000318F70A58
:100B1400FA1F8D2DF7037708F90079088312031360
:100B2400FF00780884000A128A1103200A128A112D
:100B3400003A031D9E2D9F2D612D0800F6007603BB
:100B4400031DA52DA62DC32D74087F3EF900790839
:100B5400F50004300310F50CFF3E031DAC2D7508A1
:100B6400F70079080F39F80077080A128A119B24D4
:100B74000A128A1178080A128A119B240A128A110D
:100B8400E52D02307606031DC82DC92DE52D740808
:100B9400BF3EF9007908F50004300310F50CFF3E60
:100BA400031DCF2D7508F70079080F39F800770871
:100BB4000A128A119B240A128A1178080A128A11CD
:100BC4009B240A128A110800F501F31FEA2DEB2D6C
:100BD400F22DF209F309F20A0319F30AF501F50AF1
:100BE400F11FF52DF62DFB2DF009F109F00A03197B
:100BF400F10A700871040319002E012E302EF4013D
:100C0400F40A0F2E01300310F00DF10DFF3E031D09
:100C1400052E0130FF007F08F407F11F122E132E5A
:100C2400042E71087302031D192E70087202031C2E
:100C34001C2E1D2E232E7008F2027108031CF303D0
:100C4400F30201300310F10CF00CFF3E031D242EBF
:100C54000130F402031D2F2E302E132E75080319B4
:100C6400342E352E3A2EF209F309F20A0319F30A47
:100C74007308F1007208F000080000300A128A11AB
:100C8400CF240A128A113430F500F130F400F40B49
:100C9400492EF50B492E4E2E03300A128A119B243D
:100CA4000A128A110D30F500FB30F400F40B582EB3
:100CB400F50B582E5D2E03300A128A119B240A125A
:100CC4008A111D30F5009130F400F40B672EF50BFA
:100CD400672E03300A128A119B240A128A110230E9
:100CE4000A128A119B240A128A1102300A128A11EA
:100CF4009B240A128A1108300A128A119B240A12B0
:100D04008A1100300A128A119B240A128A110C30AB
:100D14000A128A119B240A128A1100300A128A11BB
:100D24009B240A128A1106300A128A119B240A1281
:100D34008A1108000030FC000030FB000030FA008B
:100D44000030F90073087204710470040319AB2EA7
:100D5400AC2EF92EFD01FD0ABC2E0130F800031063
:100D6400F00DF10DF20DF30DF80BB12E0130FF0073
:100D74007F08FD07F31FBF2EC02EAF2E0130F800F1
:100D84000310F90DFA0DFB0DFC0DF80BC22E7308C0
:100D94007702031DD72E72087602031DD72E710821
:100DA4007502031DD72E70087402031CDA2EDB2E85
:100DB400EA2E7008F4027108031C710FF502720820
:100DC400031C720FF6027308031C730FF7027914E5
:100DD40001300310F30CF20CF10CF00CFF3E031D78
:100DE400EB2E0130FD02031DF82EF92EC02E7C08D7
:100DF400F3007B08F2007A08F1007908F00008009B
:100E0400F501F11F062F072F0E2FF009F109F00A43
:100E14000319F10AF501F50AF31F112F122F1B2FE5
:100E2400F209F309F20A0319F30A0130FF007F08FB
:100E3400F506F601F701700871040319222F232F18
:100E44005A2FF401F40A312F01300310F00DF10D83
:100E5400FF3E031D272F0130FF007F08F407F11F19
:100E6400342F352F262F01300310F60DF70DFF3EDA
:100E7400031D362F71087302031D422F700872027E
:100E8400031C452F462F4D2F7008F2027108031CD6
:100E9400F303F302761401300310F10CF00CFF3E5F
:100EA400031D4E2F0130F402031D592F5A2F352FE5
:100EB400750803195E2F5F2F642FF609F709F60AE8
:100EC4000319F70A7708F1007608F00008000A12FF
:100ED4008A11B5240A128A110A128A113F260A12AB
:100EE4008A11003083120313B9000130B800863030
:100EF400B700A030B6000A128A1126250A128A11F8
:100F0400033083120313C0000830BF007630BE00E4
:100F1400BE0B8A2FBF0B8A2FC00B8A2F00000A300A
:100F2400F0000030F1006F30F2000030F3000A12DC
:100F34008A1102270A128A117008303E83120313A1
:100F4400AA000A30F0000030F1006F30F2000030E7
:100F5400F3000A128A11E6250A128A117008303E3B
:100F640083120313AB000A30F0000030F1006F303D
:100F7400F2000030F3000A128A1102270A128A11C1
:100F84007008303E83120313AC00F401F40A0130FC
:100F94000A128A11A0250A128A112430F5000030A1
:100FA400F6000A128A115E250A128A11F401F40A63
:100FB40002300A128A11A0250A128A111030F50093
:100FC4008030F6000A128A115E250A128A11822FD5
:100FD4000A128A11002883133630FD000430FE0003
:100FE4008530FF00203084000A128A1176240A1208
:0C0FF4008A11C10183010A128A11692FC1
:08400000FF3FFF3FFF3FFF3FC0
:04400E00D620FF3F7A
:00000001FF
