:060000000A128A110E280D
:10000800FE00030EFB000A08FC007F08FD000A1230
:100018008A11A8290A128A11112883120313D00100
:10002800D101D201D301D40183010A128A11F9291D
:1000380083120313B9002F30B500CA2825303A06B9
:100048000319272828283228390884003A088313F6
:1000580080000130B1003108B907CA28B401392835
:10006800C030B1003108B40453280130AE07FF3066
:100078002E0784000A128A11D5230A128A11BA009F
:10008800B100B2013208003A03194B28CA283108D6
:10009800003A0319DA28753A03193428CA283508AA
:1000A800840083130008B600840A0008B7000230F1
:1000B800B1003108B507BA01BA0A3A08B1003107E8
:1000C800013E84000A128A11D5230A128A11B2004D
:1000D8000A128A11D5230A128A11B300330837028B
:1000E800031D78283208360203187B287C287D28CF
:1000F80087280130B1003108BA0705303A06031DD8
:100108008628872861283A08B800C1280A30A8003C
:100118000030A9003808B1003107013E84000A12F6
:100128008A11D5230A128A11A0000A128A11D5232E
:100138000A128A11A1003708A3003608A2000A1281
:100148008A1191220A128A11831203132108AB0023
:100158002008AA000A128A11D7220A128A118312C9
:1001680003132808303EBA00390884003A0883137C
:1001780080000130B1003108B907FF30B100310803
:10018800B807380A031DC928CA288A280130AE07CB
:10019800FF302E0784000A128A11D5230A128A1109
:1001A800BA003A08031DD928DA2822283908840019
:1001B800831380010800F601F11FE328E428EB28E7
:1001C800F009F109F00A0319F10AF601F60AF31F1A
:1001D800EE28EF28F828F209F309F20A0319F30ABE
:1001E8000130F4007408F606F701F801700871048C
:1001F8000319FF2800293729F501F50A0E290130CE
:100208000310F00DF10DFF3E031D04290130F40029
:100218007408F507F11F1129122903290130031069
:10022800F70DF80DFF3E031D132971087302031D16
:100238001F2970087202031C222923292A29700801
:10024800F2027108031CF303F30277140130031060
:10025800F10CF00CFF3E031D2B290130F502031DA4
:10026800362937291229760803193B293C294129BF
:10027800F709F809F70A0319F80A7808F100770866
:10028800F000080000300A128A1199230A128A1114
:10029800343083120313A500F130A400A40B5229B3
:1002A800A50B522903300A128A11B9230A128A119E
:1002B8000D3083120313A500FB30A400A40B6229A0
:1002C800A50B622903300A128A11B9230A128A116E
:1002D8001D3083120313A5009030A400A40B7229CB
:1002E800A50B7229000003300A128A11B9230A12D9
:1002F8008A1102300A128A11B9230A128A110230AD
:100308000A128A11B9230A128A1108300A128A11AC
:10031800B9230A128A1100300A128A11B9230A1263
:100328008A110C300A128A11B9230A128A11003074
:100338000A128A11B9230A128A1106300A128A117E
:10034800B9230A128A1108000B1CAB29AC29AD2964
:1003580000000B1DB029B129F0298312031353089B
:10036800803AFF0081307F02031DBC2932305202DF
:100378000318BF29C029C829013083120313D207E3
:100388000318D30A0030D3073130831203135206FF
:10039800031DD2295303031DD229D329EE29023084
:1003A800F0000030F1005408F900FA017908F20071
:1003B8007A08F3000A128A11DF200A128A117108DA
:1003C80083120313D1007008D00050088500D401AF
:1003D800D201D3010B1181017D08FF007C088A003E
:1003E8007B0E8300FE0E7E0E09000A128A114C2332
:1003F8000A128A110A128A1146210A128A118312D4
:1004080003130618082A092A112A061C0C2A0D2A81
:10041800092A0130BB003B08D4078618142A152A7C
:100428001B2A861C182A192A152A0130D402A4016D
:10043800A40A01300A128A1145220A128A110B30C5
:1004480083120313AE005108B0005008AF003C30CF
:100458000A128A111C200A128A1183120313A4019A
:10046800A40A01300A128A1145220A128A113C3064
:100478000A128A1174230A128A11032A0A128A118B
:100488000E2883120313A6002603031D4C2A4D2AA7
:100498006C2A24087F3EA9002908A500043003100F
:1004A800A50CFF3E031D532A2508A70029080F396C
:1004B800A80027080A128A11B9230A128A1183127E
:1004C800031328080A128A11B9230A128A11902ADA
:1004D80002302606031D712A722A902A2408BF3E7C
:1004E800A9002908A50004300310A50CFF3E031D30
:1004F800782A2508A70029080F39A80027080A1212
:100508008A11B9230A128A118312031328080A12BE
:100518008A11B9230A128A11080083120313A5014C
:10052800A6012008210403199A2A9B2AD22AA70186
:10053800A70AA92A01300310A00DA10DFF3E031D33
:100548009F2A0130A4002408A707A11FAC2AAD2ABE
:100558009E2A01300310A50DA60DFF3E031DAE2AED
:1005680021082302031DBA2A20082202031CBD2ADF
:10057800BE2AC52A2008A2022108031CA303A3023D
:10058800251401300310A10CA00CFF3E031DC62A40
:100598000130A702031DD12AD22AAD2A2608A100BC
:1005A8002508A0000800831203132808290403194A
:1005B800DE2ADF2A0E2BAD01AD0AED2A0130031029
:1005C800A80DA90DFF3E031DE32A0130AC002C083D
:1005D800AD07A91FF02AF12AE22A29082B02031DD8
:1005E800F72A28082A02031CFA2AFB2A012B2808C2
:1005F800AA022908031CAB03AB0201300310A90CA3
:10060800A80CFF3E031D022B0130AD02031D0D2B6C
:100618000E2BF12A2B08A9002A08A800080083122B
:100628000313A40024080F39A2002408F039A300FA
:1006380008152308A10004300310A10CFF3E031D78
:10064800202B21080A128A1199230A128A1183126F
:1006580003138815193083120313A100A10B322B41
:10066800352B83120313881122080A128A11992341
:100678000A128A118312031388151930831203137F
:10068800A100A10B452B482B8312031388110800E6
:100698000330831603178800890183160313850125
:1006A800FF30860088018113FF30950007138713F8
:1006B80083120313850188018701703083160313A1
:1006C8008F040F1481120112811101158114011474
:1006D8008312031381010B118B160B178B1708005C
:1006E80083120313A800A601A7018D2B260828074B
:1006F800A5002508840000080A128A1113230A128B
:100708008A11013083120313A6070318A70A0030C1
:10071800A70726082807A5002508840083130008D2
:10072800031D972B982B7A2B080083120313A00024
:10073800201C9F2BA02BA22B0816A32B0812A01C51
:10074800A62BA72BA92B8816AA2B8812201DAD2B08
:10075800AE2BB02B0817B12B0813A01DB42BB52B4B
:10076800B72B8817B82B8813080083120313A3002C
:10077800081123080A128A1199230A128A1183126E
:10078800031388150B3083120313A2006130A100F4
:10079800A10BCC2BA20BCC2BD12B831203138811CA
:1007A800080003308A000408840A820700340134F0
:1007B80000340A34003464340034E8340334103428
:0807C800273425347534003498
:08400000FF3FFF3FFF3FFF3FC0
:04400E00D520FF3F7B
:00000001FF
