:100000000A128A11EB2F00308A000408840A820742
:10001000003432342E3445346E34763469346134ED
:1000200072342034413473346334693469340034B5
:1007AA0002340A128A11F2230A128A1183160313D7
:1007BA00111408000A128A11F2230A128A118316E6
:1007CA000313111508000A128A11F2230A128A1158
:1007DA007008831203139300080083160313141975
:1007EA00F72BF82BF22B11081F39031DFD2BFE2BBB
:1007FA00F22B0800F30083120313081173080A127C
:10080A008A1154240A128A118312031388150B3091
:10081A00F2006230F100F10B102CF20B102C0000E8
:10082A0083120313881108008316031788018901AC
:10083A008316031386018801831203138601880134
:10084A000030AE000130AD008630AC00A030AB0005
:10085A000A128A11D9240A128A110800F800F6012C
:10086A00F701482C76087807F50075088400000817
:10087A000A128A11A4240A128A110130F6070318EF
:10088A00F70A0030F70776087807F500750884003C
:10089A0083130008031D522C532C372C0800F00038
:1008AA00701C582C592C5D2C831203130816602CCB
:1008BA00831203130812F01C632C642C662C88160E
:1008CA00672C8812701D6A2C6B2C6D2C08176E2CE5
:1008DA000813F01D712C722C742C8817752C881330
:1008EA0008000A128A11F2230A128A1183160313C4
:1008FA0091150A128A11F2230A128A11831203131A
:10090A001308F200F3017208F4007308F5000A12E2
:10091A008A11F2230A128A1170037104031D962C9C
:10092A00972C9B2C8316031391129E2C8316031368
:10093A00911611167508F1007408F0000800F40009
:10094A0074080F39F2007408F039F30083120313A4
:10095A0008157308F10004300310F10CFF3E031D63
:10096A00B12C71080A128A1154240A128A118312AC
:10097A00031388151A30F100F10BC12C0000831201
:10098A000313881172080A128A1154240A128A114E
:10099A008312031388151A30F100F10BD22C0000D0
:1009AA00831203138811080028308312031394005A
:1009BA00831603139101831203132B08AF002C082B
:1009CA00B0002D08B1002E08B20002300310AF0D9E
:1009DA00B00DB10DB20DFF3E031DEB2C3208F30032
:1009EA003108F2003008F1002F08F0000030F7005B
:1009FA007A30F6001230F5000030F4000A128A113B
:100A0A000D260A128A117008FF3E831603139300FB
:100A1A009401871507160800F6007603031D162DA4
:100A2A00172D342D74087F3EF9007908F50004303B
:100A3A000310F50CFF3E031D1D2D7508F7007908FC
:100A4A000F39F80077080A128A11FF230A128A114D
:100A5A0078080A128A11FF230A128A11562D0230C7
:100A6A007606031D392D3A2D562D7408BF3EF9001E
:100A7A007908F50004300310F50CFF3E031D402DE4
:100A8A007508F70079080F39F80077080A128A11F1
:100A9A00FF230A128A1178080A128A11FF230A12FE
:100AAA008A110800FD01FB1F5B2D5C2D632DFA09DD
:100ABA00FB09FA0A0319FB0AFD01FD0AF91F662D53
:100ACA00672D6C2DF809F909F80A0319F90A78084B
:100ADA0079040319712D722DA12DFC01FC0A802DB8
:100AEA0001300310F80DF90DFF3E031D762D01307C
:100AFA00FF007F08FC07F91F832D842D752D7908C7
:100B0A007B02031D8A2D78087A02031C8D2D8E2DF7
:100B1A00942D7808FA027908031CFB03FB020130C2
:100B2A000310F90CF80CFF3E031D952D0130FC0251
:100B3A00031DA02DA12D842D7D080319A52DA62DF9
:100B4A00AB2DFA09FB09FA0A0319FB0A7B08F9001B
:100B5A007A08F800080000300A128A1154240A128E
:100B6A008A113430F500F130F400F40BBA2DF50B8C
:100B7A00BA2DBF2D03300A128A11FF230A128A11D5
:100B8A000D30F500FB30F400F40BC92DF50BC92D1F
:100B9A00CE2D03300A128A11FF230A128A111D3040
:100BAA00F5009130F400F40BD82DF50BD82D033055
:100BBA000A128A11FF230A128A1102300A128A11B2
:100BCA00FF230A128A1102300A128A11FF230A121B
:100BDA008A1108300A128A11FF230A128A11003078
:100BEA000A128A11FF230A128A110C300A128A1178
:100BFA00FF230A128A1100300A128A11FF230A12ED
:100C0A008A1106300A128A11FF230A128A11080071
:100C1A000030FC000030FB000030FA000030F90020
:100C2A00730872047104700403191C2E1D2E6A2E97
:100C3A00FD01FD0A2D2E0130F8000310F00DF10D13
:100C4A00F20DF30DF80B222E0130FF007F08FD078D
:100C5A00F31F302E312E202E0130F8000310F90D2B
:100C6A00FA0DFB0DFC0DF80B332E73087702031DEA
:100C7A00482E72087602031D482E71087502031D5C
:100C8A00482E70087402031C4B2E4C2E5B2E7008E3
:100C9A00F4027108031C710FF5027208031C720F2B
:100CAA00F6027308031C730FF7027914013003105C
:100CBA00F30CF20CF10CF00CFF3E031D5C2E01301C
:100CCA00FD02031D692E6A2E312E7C08F3007B0873
:100CDA00F2007A08F1007908F0000800F501F11F26
:100CEA00772E782E7F2EF009F109F00A0319F10AFE
:100CFA00F501F50AF31F822E832E8C2EF209F309D1
:100D0A00F20A0319F30A0130FF007F08F506F6011B
:100D1A00F701700871040319932E942ECB2EF40157
:100D2A00F40AA22E01300310F00DF10DFF3E031D4F
:100D3A00982E0130FF007F08F407F11FA52EA62E7A
:100D4A00972E01300310F60DF70DFF3E031DA72E57
:100D5A0071087302031DB32E70087202031CB62EAB
:100D6A00B72EBE2E7008F2027108031CF303F302B9
:100D7A00761401300310F10CF00CFF3E031DBF2E58
:100D8A000130F402031DCA2ECB2EA62E75080319B4
:100D9A00CF2ED02ED52EF609F709F60A0319F70A2F
:100DAA007708F1007608F00008000A128A1119245F
:100DBA000A128A110A128A11B0250A128A110030FF
:100DCA0083120313AE000130AD008630AC00A030B0
:100DDA00AB000A128A11D9240A128A110A128A113C
:100DEA00D6230A128A112430F0000030F1000A12C8
:100DFA008A11E8230A128A117230F0000030F100D9
:100E0A000A128A11E8230A128A110A128A11DF23A6
:100E1A000A128A11E43083120313B300142F152F18
:100E2A00B30B132F00000A128A11D6230A128A1151
:100E3A002530F0000030F1000A128A11E8230A1264
:100E4A008A110030F000F1000A128A1176240A127F
:100E5A008A11700883120313A5000A128A11DF236C
:100E6A000A128A11E43083120313B3003C2F3D2F78
:100E7A00B30B3B2F00000A128A11D6230A128A11D9
:100E8A002430F0000030F1000A128A11E8230A1215
:100E9A008A116C30F0000030F1000A128A11E8233E
:100EAA000A128A110A128A11DF230A128A11E430FD
:100EBA0083120313B300612F622FB30B602F00005C
:100ECA006430F0000030F100831203132508B300E8
:100EDA00B4013308F2003408F3000A128A117326A7
:100EEA000A128A117008303E83120313A9000A30CD
:100EFA00F8000030F9000A30F0000030F10025084F
:100F0A00B300B4013308F2003408F3000A128A115C
:100F1A0073260A128A117108FB007008FA000A1275
:100F2A008A1157250A128A117808303E8312031350
:100F3A00AA000A30F8000030F9002508B300B4010D
:100F4A003308FA003408FB000A128A1157250A12DC
:100F5A008A117808303E83120313AB009F30831244
:100F6A000313B300B82FB30BB72FBB2F3030831244
:100F7A000313A7003030A8003030A9009F30831235
:100F8A000313B300C82FB30BC72FCB2FF401F40AF6
:100F9A0001300A128A1111250A128A1129300A12FD
:100FAA008A1133240A128A110630F40002300A1216
:100FBA008A1111250A128A1127300A128A1133243A
:100FCA000A128A11F32E0A128A1100280A128A11A9
:100FDA00D5230A128A11B500A001A101A201A30119
:100FEA00A401A501A601A701A801A901AA018301DB
:060FFA000A128A11DA2E32
:08400000FF3FFF3FFF3FFF3FC0
:04400E00D620FF3F7A
:00000001FF
