:060000000A128A110C280F
:10000800FE00030EF8000A08F9000A128A113A28BD
:100018000A128A110F280A128A11E2200A128A117A
:10002800A8000A128A11E3200A128A11A9000A12EA
:100038008A11E4200A128A11FC000A128A11E520AA
:100048000A128A11FD00A001A101A201A301A401C5
:10005800A501A601A701F001F101F201F301F401E4
:10006800F501F60183010A128A11972883120313F6
:100078008C1D3F28402890281412141B442845281A
:100088004928941F482849284E281308FD001413AE
:100098009413141683160313941A532854286E289D
:1000A8001419572858286E28831203131308FD00C3
:1000B8008C11141683160313141C632864285E28F5
:1000C800831203131308F300A630F700F70B6A280E
:1000D80000008D28941A712872288D28141D7528FF
:1000E80076288D28831203131308FD008316031343
:1000F800141072088312031393001416A630F70025
:10010800F70B842800008316031314188C288D28F5
:100118008728831203138C1179088A00780E8300CC
:10012800FE0E7E0E09000A128A11CF200A128A11C9
:1001380072307306031DA128A228A4281430F200E7
:100148006C307306031DA928AA28AC280530F200D4
:100158000630FB00FB0BAE2800009C280A128A110F
:100168000C28FA007A08831603139300363083129A
:100178000313940080308316031394000130910018
:10018800871507168B170B17831203138C11831609
:1001980003138C1508008316031788018901831639
:1001A8000313860188018312031386018801243012
:1001B8000A128A11B5200A128A1108000A3400347A
:0401C8005E3402346B
:04400E00D620FF3F7A
:00000001FF
