:060000000A128A110C280F
:10000800FE00030EFA000A08FB000A128A112528CE
:100018000A128A110F28F001F101F201F301F4012B
:10002800F501F601F70183120313A001A101A20152
:10003800A301A401A501A601A70183010A128A113F
:10004800BA28831203138C1D2A282B285E28141221
:10005800141B2F2830283428941F33283428392893
:100068001308F70014139413141683160313941A21
:100078003E283F2858281419422843285828831214
:1000880003131308F7008C11141683160313141C9A
:100098004E284F284928831203131308F800F90142
:1000A8007808F0007908F100A630F800F80B5A2813
:1000B80000007F2883160313941A632864287F2876
:1000C800141D672868287F28831203131308F70074
:1000D80083160313141083120313060893001416CF
:1000E800A630F800F80B76280000831603131418BE
:1000F8007E287F287928831203138C117B088A00B5
:100108007A0E8300FE0E7E0E090003308316031755
:10011800880089018316031386018801831203135B
:10012800860188017030831603138F040F148B1710
:100138000B179F131F129F12831203131F083F39B7
:1001480040389F00C3309F051F142130FD00FD0B70
:10015800AB28831203130C13831603130C172430D4
:100168000A128A11DA200A128A1108000A128A1160
:1001780089200A128A11831203139F1429307006EA
:100188007104031DC828C928CC2883120313081139
:10019800283070067104031DD228D328C228831280
:1001A80003130815C2280A128A110C28FC007C08BF
:1001B80083160313930036308312031394008030A0
:1001C80083160313940001309100871507168B17C7
:1001D8000B17831203138C11831603138C15080055
:04400E00D620FF3F7A
:00000001FF
