:060000000A128A110C280F
:10000800FE00030EF1000A08F2000A128A112128E4
:100018000A128A110F28F701F801F901FA01FB0108
:10002800FC0183120313A001A101A201A301A401F1
:10003800A50183010A128A119828831203138C1DC3
:100048002628272877281412141B2B282C28302818
:10005800941F2F28302835281308FC0014139413F4
:10006800141683160313941A3A283B285528141992
:100078003E283F285528831203131308FC008C11CF
:10008800141683160313141C4A284B284528831278
:10009800031313088800A630F000F00B5128000065
:1000A8007428941A582859287428141D5C285D2827
:1000B8007428831203131308FC0083160313141007
:1000C80083120313060893001416A630F000F00BF1
:1000D8006B280000831603131418732874286E28DD
:1000E800831203138C1172088A00710E8300FE0EAE
:1000F8007E0E0900F300730883160313930036304D
:100108008312031394008030831603139400013084
:100118009100871507168B170B17831203138C1181
:10012800831603138C1508000A128A11B1200A12CB
:100138008A118312031386090630F6001330F5007E
:10014800AD30F400F40BA628F50BA628F60BA6286C
:10015800AD289D280A128A110C28831603178801D6
:10016800890183160313860188018312031386010C
:10017800880150300A128A117E200A128A1108005A
:04400E00D620FF3F7A
:00000001FF
