:060000000A128A110E280D
:10000800FE00030EFB000A08FC007F08FD000A1230
:100018008A111E280A128A1111288313203084009D
:1000280037300A128A11C1210A128A1183010A1271
:100038008A1122290B1D212822285C2883120313E8
:100048002708803AFF0080307F02031D2D283D30AD
:100058002602031830283128392801308312031367
:10006800A6070318A70A0030A7073C30831203131A
:1000780026062704031D412842285A280230F0008A
:100088000030F1003508F900FA017908F2007A0821
:10009800F3000A128A11BB200A128A11700883120F
:1000A8000313B300B501B401A601A7010B11810127
:1000B800831203138C1D61286228B2281412141BA2
:1000C800662867286B28941F6A286B2870281308ED
:1000D800B60014139413141683160313941A752870
:1000E80076289028141979287A28902883120313DF
:1000F8001308B6008C11141683160313141C8528D4
:1001080086288028831203131308B000A630F9004C
:10011800F90B8C280000AF28941A93289428AF284C
:10012800141D97289828AF28831203131308B600C4
:100138008316031314108312031333089300141641
:10014800A630F900F90BA62800008316031314182B
:10015800AE28AF28A928831203138C117D08FF004D
:100168007C088A007B0E8300FE0E7E0E0900F601D5
:10017800F11FBF28C028C728F009F109F00A0319A0
:10018800F10AF601F60AF31FCA28CB28D428F20987
:10019800F309F20A0319F30A0130F4007408F606A9
:1001A800F701F801700871040319DB28DC2813290A
:1001B800F501F50AEA2801300310F00DF10DFF3EB4
:1001C800031DE0280130F4007408F507F11FED283D
:1001D800EE28DF2801300310F70DF80DFF3E031D50
:1001E800EF2871087302031DFB2870087202031CB4
:1001F800FE28FF2806297008F2027108031CF30381
:10020800F302771401300310F10CF00CFF3E031DCC
:1002180007290130F502031D12291329EE28760853
:100228000319172918291D29F709F809F70A0319C5
:10023800F80A7808F1007708F00008000A128A1115
:100248007A210A128A117030831603138F00063040
:1002580083120313BA001330B900AD30B800B80BDD
:100268003329B90B3329BA0B332983120313A80195
:10027800A9019F18402941296229A801A9018312CF
:1002880003132808B800B80DB80D1F083806C3397D
:1002980038069F009F140130A8070318A90A0030E8
:1002A800A9072908803AFF0080307F02031D5E29D4
:1002B80003302802031C612962294329831203138E
:1002C8000618672968296C290130B8003808B5076D
:1002D80086186F29702974290130B8003808B407C6
:1002E800803095003D290A128A110E2883160317BB
:1002F80088018901831603138501FF308600880170
:10030800811389010F309500831203138801890135
:1003180024300A128A11A5210A128A117030831614
:1003280003138F040F148112011281110115811416
:1003380001148312031381018B110B140B178B17F4
:10034800080083120313B7003708831603139300BA
:1003580036308312031394008030831603139400FD
:1003680001309100871507168B170B17831203139B
:100378008C11831603138C15080064008001840A0D
:0A0388000406031900340406C2291C
:04400E00D520FF3F7B
:00000001FF
