:060000000A128A110C280F
:10000800FE00030EF8000A08F9000A128A113828BF
:100018000A128A110F280A128A11D7200A128A1185
:10002800A6000A128A11D8200A128A11A7000A12F9
:100038008A11D9200A128A11FB000A128A11DA20C1
:100048000A128A11FC00A001A101A201A301A401C6
:10005800A501F001F101F201F301F401F501F60146
:1000680083010A128A11C228831203138C1D3D28AA
:100078003E288E281412141B422843284728941F10
:10008800462847284C281308FC0014139413141608
:1000980083160313941A512852286C2814195528CA
:1000A80056286C28831203131308FC008C111416AD
:1000B80083160313141C612862285C288312031317
:1000C80013088800A630F700F70B682800008B2873
:1000D800941A6F2870288B28141D732874288B286D
:1000E800831203131308FC008316031314107630CD
:1000F8008312031393001416A630F700F70B822817
:1001080000008316031314188A288B288528831265
:1001180003138C1179088A00780E8300FE0E7E0E78
:100128000900FA007A088316031393003630831205
:100138000313940080308316031394000130910058
:10014800871507168B170B17831203138C11831649
:1001580003138C1508008316031788018901831679
:100168000313860188018312031386018801243052
:100178000A128A1195200A128A1108000A128A1195
:10018800AF200A128A110130F700C7280A128A1113
:100198000C2800308A000408840A82070034753469
:0E01A8006E346F3400340A3400345E34023496
:04400E00D620FF3F7A
:00000001FF
