:060000000A128A110C280F
:10000800FE00030EF8000A08F9000A128A113A28BD
:100018000A128A110F280A128A11EE200A128A116E
:10002800A8000A128A11EF200A128A11A9000A12DE
:100038008A11F0200A128A11FC000A128A11F12092
:100048000A128A11FD00A001A101A201A301A401C5
:10005800A501A601A701F001F101F201F301F401E4
:10006800F501F60183010A128A11D42883120313B9
:100078008C1D3F284028A0281412141B442845280A
:100088004928941F482849284E281308FD001413AE
:100098009413141683160313941A532854286E289D
:1000A8001419572858286E28831203131308FD00C3
:1000B8008C11141683160313141C632864285E28F5
:1000C800831203131308F300A630F700F70B6A280E
:1000D80000009D28941A712872289D28141D7528DF
:1000E80076289D2872307306031D7B287C287E287D
:1000F8001430F2006C307306031D83288428862888
:100108000530F200831203131308FD00831603134E
:10011800141072088312031393001416A630F70004
:10012800F70B942800008316031314189C289D28A5
:100138009728831203138C1179088A00780E83009C
:10014800FE0E7E0E0900FA007A0883160313930048
:1001580036308312031394008030831603139400FF
:1001680001309100871507168B170B17831203139D
:100178008C11831603138C15080083160317880146
:1001880089018316031386018801831203138601EC
:10019800880124300A128A11A7200A128A1108003D
:1001A8000A128A11C1200A128A110130F50006309C
:1001B800FB00FB0BDD280000D9280A128A110C2845
:1001C80000308A000408840A8207003475346E34CB
:0C01D8006F3400340A3400345E3402340A
:04400E00D620FF3F7A
:00000001FF
