:060000000A128A110E280D
:10000800FE00030EFA000A08FB007F08FC000A1233
:100018008A11842A0A128A111128FD0183120313F6
:10002800BC01BD01BE01BF01C001C101C201C301C4
:10003800C401C501C601C70183160313DC01DD0134
:10004800DE01DF01E001E101E20183010A128A1108
:10005800F02883120313B7002D30B300DB282530B6
:1000680038060319382839284328370884003808FF
:10007800831380000130FF007F08B707DB28B20137
:100088004A28C030FF007F08B20464280130AC075A
:10009800FF302C0784000A128A11DC230A128A1105
:1000A800B800AF00B0013008003A03195C28DB281B
:1000B8002F08003A0319EB28753A03194528DB285D
:1000C8003308840083130008B400840A0008B500CC
:1000D8000230FF007F08B307B801B80A3808AF003C
:1000E8002F07013E84000A128A11DC230A128A11A2
:1000F800B0000A128A11DC230A128A11B1003108F1
:100108003502031D89283008340203188C288D28ED
:100118008E2898280130FF007F08B8070530380678
:10012800031D9728982872283808B600D2280A3064
:10013800A7000030A8003608AF002F07013E840052
:100148000A128A11DC230A128A11A0000A128A11E3
:10015800DC230A128A11A1003508A3003408A20082
:100168000A128A11CD220A128A1183120313210856
:10017800AA002008A9000A128A1158230A128A1113
:10018800831203132708303EB80037088400380864
:10019800831380000130FF007F08B707FF30FF009E
:1001A8007F08B607360A031DDA28DB289B280130AA
:1001B800AC07FF302C0784000A128A11DC230A12CC
:1001C8008A11B8003808031DEA28EB2833283708B5
:1001D80084008313800108000A128A1194230A12EA
:1001E8008A117030831603138F00003083120313B3
:1001F800AA00AB000030AC00AD004330B1007F3046
:10020800B0000030AF000030AE000A128A1113238C
:100218000A128A11831203139F14063083120313E0
:10022800BB001330BA00AD30B900B90B1929BA0BAD
:100238001929BB0B192983160313DE01DF01831269
:1002480003139F1828292929502983160313DE012F
:10025800DF01831603135E0883120313B900B90D77
:10026800B90D1F083906C33939069F009F1401309C
:1002780083160313DE070318DF0A0030DF075F0861
:10028800803AFF0080307F02031D4C2903305E0254
:10029800031C4F2950292D298312031306185529A9
:1002A80056295A290130FF007F08FD0786185D2965
:1002B8005E2964290130FF007F0883160313E207D3
:1002C80083128801803095000B30AC00831603132D
:1002D800610883120313B900BA013908AD003A085E
:1002E800AE00A0300A128A112D200A128A110B3092
:1002F80083120313AC007D08B900BA013908AD00B8
:100308003A08AE00B4300A128A112D200A128A1156
:100318000B3083120313AC00831603136208831295
:100328000313B900BA013908AD003A08AE00C83065
:100338000A128A112D200A128A1123290A128A11F7
:100348000E28031083120313220D230DA900290878
:10035800031DAF29B029B9290030A3000030A2003D
:100368000030A1000030A0001C2A2008A4002108A9
:10037800A5002208A6002308A7001F300310A70C19
:10038800A60CA50CA40CFF3E031DC2292408A80036
:10039800A217FF30A005FF30A105FF30A2050030ED
:1003A800A3059630A902A91FDA29DB29F52929080E
:1003B800803A973E0318E129E229E329B029013060
:1003C8000310A30CA20CA10CA00CFF3E031DE429F2
:1003D8000130FF007F08A907031DF329F429E32949
:1003E8000C2A20302902031CFA29FB29072AB029E4
:1003F8000130A4000310A00DA10DA20DA30DA40BA4
:10040800FE290130A9022908031D0B2A0C2AFC2900
:1004180028080319102A112A1C2AA009A109A209CF
:10042800A309A00A0319A10A0319A20A0319A30A16
:100438000800F501F11F212A222A292AF009F109C9
:10044800F00A0319F10AF501F50AF31F2C2A2D2ADF
:10045800362AF209F309F20A0319F30A0130FF00F8
:100468007F08F506F601F7017008710403193D2AA3
:100478003E2A752AF401F40A4C2A01300310F00DC3
:10048800F10DFF3E031D422A0130FF007F08F407EB
:10049800F11F4F2A502A412A01300310F60DF70D9B
:1004A800FF3E031D512A71087302031D5D2A70085F
:1004B8007202031C602A612A682A7008F202710815
:1004C800031CF303F302761401300310F10CF00C53
:1004D800FF3E031D692A0130F402031D742A752AA0
:1004E800502A75080319792A7A2A7F2AF609F70902
:1004F800F60A0319F70A7708F1007608F0000800F1
:100508000B1D872A882AC42A831203134108803ABC
:10051800FF0080307F02031D932A653040020318D4
:10052800962A972A9F2A013083120313C0070318BB
:10053800C10A0030C1076430831203134006410426
:10054800031DA72AA82AC22A0230F0000030F100B1
:100558007D08F800F9017808F2007908F3000A121A
:100568008A111D220A128A11700883160313E100EA
:10057800FD01E20183120313C001C1010B118101C6
:100588007C08FF007B088A007A0E8300FE0E7E0E30
:10059800090083120313A401A501200821040319EB
:1005A800D62AD72A0E2BA601A60AE52A013003105F
:1005B800A00DA10DFF3E031DDB2A0130FF007F08BF
:1005C800A607A11FE82AE92ADA2A01300310A40D98
:1005D800A50DFF3E031DEA2A21082302031DF62A62
:1005E80020082202031CF92AFA2A012B2008A20259
:1005F8002108031CA303A302241401300310A10C37
:10060800A00CFF3E031D022B0130A602031D0D2B7B
:100618000E2BE92A2508A1002408A000080083124F
:1006280003132C0C83160313031C87100318871459
:10063800831203132A0C83160313031C07110318D0
:100648000715831203133108A3003008A2002F08EE
:10065800A1002E08A0000A128A11A5210A128A11E7
:100668008312031320088316031392003F3083126A
:10067800031397051708F0390C3897000F309500C9
:10068800CF3097058C100330920412151D08F039ED
:100698000C389D000F309B001D129D128C1C552B91
:1006A800562B522B8C10080083120313270828049A
:1006B80003195F2B602B8F2BAB01AB0A6E2B01301C
:1006C8000310A70DA80DFF3E031D642B0130FF008A
:1006D8007F08AB07A81F712B722B632B28082A02EF
:1006E800031D782B27082902031C7B2B7C2B822BCC
:1006F8002708A9022808031CAA03AA02013003102C
:10070800A80CA70CFF3E031D832B0130AB02031D71
:100718008E2B8F2B722B2A08A8002908A700080007
:100728008316031788018901FF3083160313850098
:10073800FF3086008801811389010F3095008312EC
:1007480003138801890124300A128A11C0230A126E
:100758008A117030831603138F040F14811201124B
:1007680081110115811401148312031381018B1166
:100778000B140B178B17080083120313A000200813
:1007880083160313930036308312031394008030CA
:1007980083160313940001309100871507168B17F1
:1007A8000B17831203138C11831603138C1508007F
:1007B80003308A000408840A8207003401340034B4
:1007C8000A34003464340034E834033410342734F1
:0607D800253475340034E5
:04400E00D520FF3F7B
:00000001FF
