:060000000A128A1110280B
:10000800FE00030E83120313AB000A08AC007F083E
:10001800AD000A128A113F290A128A111328831384
:100028004730840060300A128A11F8260A128A11B1
:1000380083160313DF01E001E101E20183010A12E3
:100048008A1126280A128A11B9250A128A117030D3
:10005800831603138F00003083120313B800B9000E
:100068000030BA00BB004330BF007F30BE00003014
:10007800BD000030BC000A128A1174250A128A11C8
:10008800831203139F14063083160313A200133040
:10009800A100AD30A000A00B4F28A10B4F28A20B48
:1000A8004F280A128A1180240A128A118312031314
:1000B8009F1483160313DF01E001831203139F18B3
:1000C80066286728922883160313DF01E001831648
:1000D80003135F08A000A00DA00D831203131F08CF
:1000E800831603132006C3392006831203139F00C7
:1000F8009F14013083160313DF070318E00A00304A
:10010800E0076008803AFF0080307F02031D8E28D8
:1001180003305F02031C912892286B288312031373
:100128000618972898289C280130FF007F08DF07C9
:1001380086189F28A028A6280130FF007F0883166C
:100148000313E20783120619AA28AB28B028061D54
:10015800AE28AF28AB2809148619B328B428C228BA
:10016800861DB728B828B4288918BB28BC28BD28FC
:100178008914891CC028C128C22889100B30BA00EC
:10018800831603136108A000A1012008831203133A
:10019800BB0083160313210883120313BC00A3308A
:1001A8000A128A1126220A128A110B3083120313AB
:1001B800BA005F0883160313A000A1012008831268
:1001C8000313BB0083160313210883120313BC0017
:1001D800B7300A128A1126220A128A110B308312AA
:1001E8000313BA00831603136208A000A1012008B4
:1001F80083120313BB00831603132108831203130E
:10020800BC00CB300A128A1126220A128A118312E4
:100218000313B201B20A01300A128A11E2240A1247
:100228008A11A3300A128A116E260A128A11043022
:1002380083120313B20001300A128A11E2240A124F
:100248008A11B7300A128A116E260A128A110830EA
:1002580083120313B20001300A128A11E2240A122F
:100268008A11CB300A128A116E260A128A11612865
:100278000A128A1110280C1F42294329DB291F0C56
:10028800A700270C0F39013A031D4B294C297B295C
:100298000030A000A1001E08A700A801A901AA011A
:1002A8002A08F3002908F2002808F1002708F000BE
:1002B80000300A128A11E9220A128A11730883127D
:1002C8000313A5007208A4007108A3007008A20017
:1002D8000A128A11CF260A128A11831203131E08E2
:1002E800A700A8012708D5002808D600DA291F0C7E
:1002F800A700270C0F39003A031D83298429B42944
:100308000130A0000030A1001E08A700A801A90123
:10031800AA012A08F3002908F2002808F100270892
:10032800F00000300A128A11E9220A128A117308B1
:1003380083120313A5007208A4007108A3007008B3
:10034800A2000A128A11CF260A128A1183120313F5
:100358001E08A700A8012708D3002808D400DA2916
:100368001F0CA700270C0F39023A031DBC29BD2911
:10037800DA291E08A700A801A901AA012A08F30082
:100388002908F2002808F1002708F00000300A12B6
:100398008A11E9220A128A11730883120313CA0008
:1003A8007208C9007108C8007008C7000C130B1D3B
:1003B800DE29DF291D2A5008803AFF0080307F029D
:1003C800031DE82965304F020318EB29EC29F429AD
:1003D800013083120313CF070318D00A0030D00767
:1003E8006430831203134F065004031DFC29FD29B2
:1003F8001B2A0230F0000030F1005F08A700A801B6
:100408002708F2002808F3000A128A1119240A1290
:100418008A11700883160313E10083120313DF01A6
:1004280083160313E20183120313CF01D0010B11CA
:1004380081012D08FF002C088A002B0E8300FE0E78
:100448007E0E090083120313C5003B30C100D42A75
:10045800253046060319312A322A3C2A45088400E9
:100468004608831380000130FF007F08C507D42A9F
:10047800C001432AC030FF007F08C0045D2A013054
:10048800BA07FF303A0784000A128A11E5260A12D1
:100498008A11C600BD00BE013E08003A0319552A5C
:1004A800D42A3D08003A0319E42A753A03193E2A6A
:1004B800D42A4108840083130008C200840A000873
:1004C800C3000230FF007F08C107C601C60A4608FC
:1004D800BD003D07013E84000A128A11E5260A1272
:1004E8008A11BE000A128A11E5260A128A11BF0073
:1004F8003F084302031D822A3E0842020318852A48
:10050800862A872A912A0130FF007F08C60705300E
:100518004606031D902A912A6B2A4608C400CB2A56
:100528000A30B5000030B6004408BD003D07013E62
:1005380084000A128A11E5260A128A11AE000A12EC
:100548008A11E5260A128A11AF004308B100420851
:10055800B0000A128A112E250A128A118312031377
:100568002F08B8002E08B7000A128A11F9250A12B6
:100578008A11831203133508303EC60045088400EB
:100588004608831380000130FF007F08C507FF304D
:10059800FF007F08C407440A031DD32AD42A942ADB
:1005A8000130BA07FF303A0784000A128A11E5269B
:1005B8000A128A11C6004608031DE32AE42A2C2AD7
:1005C80045088400831380010800F800780803199F
:1005D800EE2AEF2A032BF31FF22AF32A032B7009C2
:1005E800FA007109FB007209FC007309FD00FA0AA0
:1005F8000319FB0A0319FC0A0319FD0A0B2B7308DC
:10060800FD007208FC007108FB007008FA0073080E
:10061800720471047004031D122B132B1C2B003061
:10062800F3000030F2000030F1000030F000A02BA1
:100638009630F9002C2B0130FF007F08F9070130B4
:100648000310FD0CFC0CFB0CFA0CFF3E031D242BC5
:10065800FE307D05031D312B322B1F2B4E2B013015
:10066800FF007F08F9070130FA070030031801304E
:10067800FB07003003180130FC0700300318013075
:10068800FD0701300310FD0CFC0CFB0CFA0CFF3EBF
:10069800031D462BFF307D05031D532B542B332B95
:1006A800602B0130F9020130F4000310FA0DFB0D44
:1006B800FC0DFD0DF40B592BFC1B632B642B6A2BD3
:1006C800023079020318692B6A2B552B79186D2B88
:1006D8006E2B762BFF30FA05FF30FB057F30FC05CB
:1006E800FF30FD050310F90C7908F400F501F60157
:1006F800F70118300310F40DF50DF60DF70DFF3E58
:10070800031D7E2B7408FA047508FB047608FC04A4
:100718007708FD0478080319922B932B982BF31F65
:10072800962B972B982BFD177D08F3007C08F20079
:100738007B08F1007A08F000080003108312031305
:10074800300D310DB7003708031DAB2BAC2BB52B83
:100758000030B1000030B0000030AF000030AE0013
:10076800182C2E08B2002F08B3003008B400310846
:10077800B5001F300310B50CB40CB30CB20CFF3E1F
:10078800031DBE2B3208B600B017FF30AE05FF3090
:10079800AF05FF30B0050030B1059630B702B71F7E
:1007A800D62BD72BF12B3708803A973E0318DD2B31
:1007B800DE2BDF2BAC2B01300310B10CB00CAF0CCF
:1007C800AE0CFF3E031DE02B0130FF007F08B7078A
:1007D800031DEF2BF02BDF2B082C20303702031CD6
:1007E800F62BF72B032CAC2B0130B2000310AE0D07
:1007F800AF0DB00DB10DB20BFA2B0130B7023708AF
:10080800031D072C082CF82B360803190C2C0D2C6B
:10081800182CAE09AF09B009B109AE0A0319AF0A1D
:100828000319B00A0319B10A0800F501F11F1D2CBC
:100838001E2C252CF009F109F00A0319F10AF5011B
:10084800F50AF31F282C292C322CF209F309F20A95
:100858000319F30A0130FF007F08F506F601F701D6
:10086800700871040319392C3A2C712CF401F40A1C
:10087800482C01300310F00DF10DFF3E031D3E2CF6
:100888000130FF007F08F407F11F4B2C4C2C3D2C46
:1008980001300310F60DF70DFF3E031D4D2C7108B6
:1008A8007302031D592C70087202031C5C2C5D2C0A
:1008B800642C7008F2027108031CF303F302761427
:1008C80001300310F10CF00CFF3E031D652C0130C4
:1008D800F402031D702C712C4C2C75080319752C0F
:1008E800762C7B2CF609F709F60A0319F70A77081C
:1008F800F1007608F000080000300A128A119326E9
:100908000A128A11343083120313B300F130B20093
:10091800B20B8C2CB30B8C2C03300A128A11B32621
:100928000A128A110D3083120313B300FB30B20090
:10093800B20B9C2CB30B9C2C03300A128A11B326E1
:100948000A128A111D3083120313B3009030B200CB
:10095800B20BAC2CB30BAC2C000003300A128A117A
:10096800B3260A128A1102300A128A11B3260A1211
:100978008A1102300A128A11B3260A128A11083023
:100988000A128A11B3260A128A1100300A128A1131
:10099800B3260A128A110C300A128A11B3260A12D7
:1009A8008A1100300A128A11B3260A128A110630F7
:1009B8000A128A11B3260A128A1108008312031335
:1009C800B4003403031DE92CEA2C092D32087F3EBC
:1009D800B7003708B30004300310B30CFF3E031D03
:1009E800F02C3308B50037080F39B60035080A125D
:1009F8008A11B3260A128A118312031336080A12BF
:100A08008A11B3260A128A112D2D02303406031DCD
:100A18000E2D0F2D2D2D3208BF3EB7003708B3001D
:100A280004300310B30CFF3E031D152D3308B50029
:100A380037080F39B60035080A128A11B3260A1288
:100A48008A118312031336080A128A11B3260A126E
:100A58008A11080083120313B201B3012E082F0470
:100A68000319372D382D6F2DB401B40A462D0130E6
:100A78000310AE0DAF0DFF3E031D3C2D0130FF00EE
:100A88007F08B407AF1F492D4A2D3B2D01300310B5
:100A9800B20DB30DFF3E031D4B2D2F083102031D70
:100AA800572D2E083002031C5A2D5B2D622D2E085F
:100AB800B0022F08031CB103B10232140130031035
:100AC800AF0CAE0CFF3E031D632D0130B402031DB5
:100AD8006E2D6F2D4A2D3308AF003208AE00080086
:100AE800831203133A0C83160313031C871003188D
:100AF800871483120313380C83160313031C07117E
:100B080003180715831203133F08B1003E08B0000D
:100B18003D08AF003C08AE000A128A11A1230A1250
:100B28008A11831203132E088316031392003F3091
:100B38008312031397051708F0390C3897000F3004
:100B48009500CF3097058C100330920412151D08BC
:100B5800F0390C389D000F309B001D129D128C1C23
:100B6800B62DB72DB32D8C1008000330831603174C
:100B780088008901FF30831603138500FF30860043
:100B88008801811389010F309500831203138801AE
:100B980089017030831603138F040F149F131F12DB
:100BA8009F12831203131F083F3940389F00C33038
:100BB8009F051F14203083120313AE00AE0BE22DE5
:100BC800000083160313811201128111011581148B
:100BD80001148312031381010C13831603130C17DA
:100BE8008B110B140B178B1708008312031335088E
:100BF80036040319002E012E302EB901B90A0F2E22
:100C080001300310B50DB60DFF3E031D052E013052
:100C1800FF007F08B907B61F122E132E042E3608C0
:100C28003802031D192E35083702031C1C2E1D2EF1
:100C3800232E3508B7023608031CB803B802013062
:100C48000310B60CB50CFF3E031D242E0130B9026B
:100C5800031D2F2E302E132E3808B6003708B50086
:100C6800080083120313B20032080F39B0003208AB
:100C7800F039B10008153108AF0004300310AF0C8B
:100C8800FF3E031D422E2F080A128A1193260A12CC
:100C98008A11831203138815193083120313AF00C6
:100CA800AF0B542E572E83120313881130080A12E3
:100CB8008A1193260A128A11831203138815193090
:100CC80083120313AF00AF0B672E6A2E8312031330
:100CD8008811080083120313B600B401B501872EEA
:100CE80034083607B3003308840000080A128A1152
:100CF80035260A128A11013083120313B407031828
:100D0800B50A0030B50734083607B3003308840045
:100D180083130008031D912E922E742E080083124F
:100D28000313AE002E1C992E9A2E9C2E08169D2E6B
:100D38000812AE1CA02EA12EA32E8816A42E88124F
:100D48002E1DA72EA82EAA2E0817AB2E0813AE1DEF
:100D5800AE2EAF2EB12E8817B22E8813080083123C
:100D68000313B100081131080A128A1193260A12D6
:100D78008A118312031388150B3083120313B000F2
:100D88006130AF00AF0BC62EB00BC62ECB2E831230
:100D98000313881108008312031320082104031D7C
:100DA800D62ED72EDE2E1E08A6000310260C803E57
:100DB8009500E42E1E08A6000310260C803E9B001A
:100DC800080006308A000408840A820700340134C7
:100DD80000340A34003464340034E8340334103402
:100DE800273425347534003464008001840A0406ED
:080DF800031900340406F92E72
:04400E00D520FF3F7B
:00000001FF
