:060000000A128A110C280F
:10000800FE00030EF1000A08F2000A128A11A12864
:100018000A128A110F2883132F30FD000230FE00C8
:100028001D30FF00203084000A128A11FB210A12B9
:100038008A110A128A112C220A128A11F6000A124F
:100048008A112D220A128A11F7000A128A112E2209
:100058000A128A11F800AF01B001B101B201B3016F
:10006800B401B501B601B701B801F901FA0183017C
:100078000A128A117F2900300A128A11A1210A1254
:100088008A11343083120313BB00F130BA00BA0B63
:100098004B28BB0B4B2803300A128A11DD210A12A8
:1000A8008A110D3083120313BB00FB30BA00BA0B60
:1000B8005B28BB0B5B2803300A128A11DD210A1268
:1000C8008A111D3083120313BB009030BA00BA0B9B
:1000D8006B28BB0B6B28000003300A128A11DD2144
:1000E8000A128A1102300A128A11DD210A128A11B3
:1000F80002300A128A11DD210A128A1108300A1206
:100108008A11DD210A128A1100300A128A11DD21B2
:100118000A128A110C300A128A11DD210A128A1178
:1001280000300A128A11DD210A128A1106300A12D9
:100138008A11DD210A128A110800831203138C1D0B
:10014800A628A728F7281412141BAB28AC28B02817
:10015800941FAF28B028B5281308F8001413941377
:10016800141683160313941ABA28BB28D528141911
:10017800BE28BF28D528831203131308F8008C1152
:10018800141683160313141CCA28CB28C5288312F7
:10019800031313088800A630F000F00BD1280000E4
:1001A800F428941AD828D928F428141DDC28DD2826
:1001B800F428831203131308F8008316031314108A
:1001C80020308312031393001416A630F000F00BAE
:1001D800EB280000831603131418F328F428EE28DC
:1001E800831203138C1172088A00710E8300FE0EAD
:1001F8007E0E090083120313BC003C03031D05296E
:10020800062925293A087F3EBF003F08BB00043075
:100218000310BB0CFF3E031D0C293B08BD003F0823
:100228000F39BE003D080A128A11DD210A128A110F
:10023800831203133E080A128A11DD210A128A1159
:10024800492902303C06031D2A292B2949293A0845
:10025800BF3EBF003F08BB0004300310BB0CFF3E8D
:10026800031D31293B08BD003F080F39BE003D087A
:100278000A128A11DD210A128A11831203133E0819
:100288000A128A11DD210A128A1108008312031347
:10029800BB003B080F39B9003B08F039BA00081514
:1002A8003A08F40004300310F40CFF3E031D5729EC
:1002B80074080A128A11A1210A128A1183120313DF
:1002C80088151A30F400F40B672900008312031311
:1002D800881139080A128A11A1210A128A11831277
:1002E800031388151A30F400F40B782900008312E0
:1002F8000313881108000A128A110A220A128A11A5
:100308000A128A113F200A128A113A308312031303
:10031800A6003030A700BA01BA0A01300A128A11C1
:10032800FE200A128A1120300A128A114A210A1262
:100338008A1189290A128A110C28F300731CA5292D
:10034800A629AA29831203130816AD2983120313B9
:100358000812F31CB029B129B3298816B4298812C8
:10036800731DB729B829BA290817BB290813F31D23
:10037800BE29BF29C1298817C22988130800F3009C
:100388007308831603139300363083120313940003
:1003980080308316031394000130910087150716E7
:1003A8008B170B17831203138C11831603138C15E9
:1003B800080083120313B900081139080A128A11B8
:1003C800A1210A128A118312031388150B30F50034
:1003D8006230F400F40BEE29F50BEE2900008312CD
:1003E8000313881108007E088A007F0882000A1219
:1003F8008A11F7210A128A118000840A04087D06EE
:1004080003190034FF0A0319FE0AFB298316031790
:100418008801890183160313860188018312031357
:100428008601880124300A128A11C3210A128A110E
:1004380008007634613472346C343A342034303401
:1004480030343A34303430343A34303430340034A0
:060458005E34643402343E
:04400E00D620FF3F7A
:00000001FF
